{
  "_format": "hh-sol-artifact-1",
  "contractName": "KycForm",
  "sourceName": "contracts/KyCForm.sol",
  "abi": [
    {
      "anonymous": false,
      "inputs": [
        {
          "indexed": false,
          "internalType": "address",
          "name": "bank",
          "type": "address"
        }
      ],
      "name": "DataAccessDenied",
      "type": "event"
    },
    {
      "anonymous": false,
      "inputs": [
        {
          "indexed": false,
          "internalType": "address",
          "name": "bank",
          "type": "address"
        }
      ],
      "name": "DataAccessGranted",
      "type": "event"
    },
    {
      "anonymous": false,
      "inputs": [
        {
          "indexed": false,
          "internalType": "address",
          "name": "user",
          "type": "address"
        },
        {
          "indexed": false,
          "internalType": "address",
          "name": "bank",
          "type": "address"
        }
      ],
      "name": "DataAccessRequested",
      "type": "event"
    },
    {
      "anonymous": false,
      "inputs": [
        {
          "indexed": false,
          "internalType": "address",
          "name": "user",
          "type": "address"
        }
      ],
      "name": "FormDataStored",
      "type": "event"
    },
    {
      "anonymous": false,
      "inputs": [
        {
          "indexed": false,
          "internalType": "bool",
          "name": "status",
          "type": "bool"
        }
      ],
      "name": "requested",
      "type": "event"
    },
    {
      "inputs": [
        {
          "internalType": "address",
          "name": "_receiver",
          "type": "address"
        }
      ],
      "name": "allowAccess",
      "outputs": [],
      "stateMutability": "nonpayable",
      "type": "function"
    },
    {
      "inputs": [
        {
          "internalType": "address",
          "name": "",
          "type": "address"
        }
      ],
      "name": "bankAddress",
      "outputs": [
        {
          "internalType": "address",
          "name": "",
          "type": "address"
        }
      ],
      "stateMutability": "view",
      "type": "function"
    },
    {
      "inputs": [
        {
          "internalType": "address",
          "name": "_user",
          "type": "address"
        }
      ],
      "name": "getFormData",
      "outputs": [
        {
          "internalType": "string[]",
          "name": "",
          "type": "string[]"
        }
      ],
      "stateMutability": "view",
      "type": "function"
    },
    {
      "inputs": [],
      "name": "getIsAsking",
      "outputs": [
        {
          "internalType": "bool",
          "name": "",
          "type": "bool"
        },
        {
          "internalType": "address",
          "name": "",
          "type": "address"
        }
      ],
      "stateMutability": "view",
      "type": "function"
    },
    {
      "inputs": [],
      "name": "getOwnData",
      "outputs": [
        {
          "internalType": "string[]",
          "name": "",
          "type": "string[]"
        }
      ],
      "stateMutability": "view",
      "type": "function"
    },
    {
      "inputs": [
        {
          "internalType": "address",
          "name": "",
          "type": "address"
        }
      ],
      "name": "isAsking",
      "outputs": [
        {
          "internalType": "bool",
          "name": "",
          "type": "bool"
        }
      ],
      "stateMutability": "view",
      "type": "function"
    },
    {
      "inputs": [
        {
          "internalType": "address",
          "name": "_user",
          "type": "address"
        }
      ],
      "name": "recentRequestStatus",
      "outputs": [
        {
          "internalType": "string",
          "name": "",
          "type": "string"
        }
      ],
      "stateMutability": "view",
      "type": "function"
    },
    {
      "inputs": [
        {
          "internalType": "address",
          "name": "_userAddress",
          "type": "address"
        }
      ],
      "name": "requestDataAccess",
      "outputs": [
        {
          "internalType": "bool",
          "name": "",
          "type": "bool"
        }
      ],
      "stateMutability": "nonpayable",
      "type": "function"
    },
    {
      "inputs": [
        {
          "internalType": "address",
          "name": "_receiver",
          "type": "address"
        }
      ],
      "name": "revokeAccess",
      "outputs": [],
      "stateMutability": "nonpayable",
      "type": "function"
    },
    {
      "inputs": [
        {
          "components": [
            {
              "internalType": "string",
              "name": "first_name",
              "type": "string"
            },
            {
              "internalType": "string",
              "name": "last_name",
              "type": "string"
            },
            {
              "internalType": "string",
              "name": "middle_name",
              "type": "string"
            },
            {
              "internalType": "string",
              "name": "dob",
              "type": "string"
            },
            {
              "internalType": "string",
              "name": "id_type",
              "type": "string"
            },
            {
              "internalType": "string",
              "name": "id_no",
              "type": "string"
            },
            {
              "internalType": "string",
              "name": "gender",
              "type": "string"
            },
            {
              "internalType": "string",
              "name": "marital_status",
              "type": "string"
            },
            {
              "internalType": "string",
              "name": "caste",
              "type": "string"
            },
            {
              "internalType": "string",
              "name": "religion",
              "type": "string"
            },
            {
              "internalType": "string",
              "name": "profession",
              "type": "string"
            },
            {
              "internalType": "string",
              "name": "phone_number",
              "type": "string"
            },
            {
              "internalType": "string",
              "name": "state",
              "type": "string"
            },
            {
              "internalType": "string",
              "name": "district",
              "type": "string"
            },
            {
              "internalType": "string",
              "name": "local_level",
              "type": "string"
            },
            {
              "internalType": "string",
              "name": "ward_no",
              "type": "string"
            },
            {
              "internalType": "string",
              "name": "village_tole",
              "type": "string"
            },
            {
              "internalType": "string",
              "name": "house_no",
              "type": "string"
            },
            {
              "internalType": "string",
              "name": "temp_state",
              "type": "string"
            },
            {
              "internalType": "string",
              "name": "temp_district",
              "type": "string"
            },
            {
              "internalType": "string",
              "name": "temp_local_level",
              "type": "string"
            },
            {
              "internalType": "string",
              "name": "temp_ward_no",
              "type": "string"
            },
            {
              "internalType": "string",
              "name": "temp_village_tole",
              "type": "string"
            },
            {
              "internalType": "string",
              "name": "temp_house_no",
              "type": "string"
            },
            {
              "internalType": "string",
              "name": "father_first_name",
              "type": "string"
            },
            {
              "internalType": "string",
              "name": "father_middle_name",
              "type": "string"
            },
            {
              "internalType": "string",
              "name": "father_last_name",
              "type": "string"
            },
            {
              "internalType": "string",
              "name": "mother_first_name",
              "type": "string"
            },
            {
              "internalType": "string",
              "name": "mother_middle_name",
              "type": "string"
            },
            {
              "internalType": "string",
              "name": "mother_last_name",
              "type": "string"
            },
            {
              "internalType": "string",
              "name": "spouse_first_name",
              "type": "string"
            },
            {
              "internalType": "string",
              "name": "spouse_middle_name",
              "type": "string"
            },
            {
              "internalType": "string",
              "name": "spouse_last_name",
              "type": "string"
            },
            {
              "internalType": "string",
              "name": "grandfather_first_name",
              "type": "string"
            },
            {
              "internalType": "string",
              "name": "grandfather_middle_name",
              "type": "string"
            },
            {
              "internalType": "string",
              "name": "grandfather_last_name",
              "type": "string"
            },
            {
              "internalType": "string",
              "name": "grandmother_first_name",
              "type": "string"
            },
            {
              "internalType": "string",
              "name": "grandmother_middle_name",
              "type": "string"
            },
            {
              "internalType": "string",
              "name": "grandmother_last_name",
              "type": "string"
            },
            {
              "internalType": "string",
              "name": "status",
              "type": "string"
            }
          ],
          "internalType": "struct KycForm.UserData",
          "name": "_userData",
          "type": "tuple"
        }
      ],
      "name": "storeFormData",
      "outputs": [],
      "stateMutability": "nonpayable",
      "type": "function"
    },
    {
      "inputs": [
        {
          "internalType": "address",
          "name": "",
          "type": "address"
        }
      ],
      "name": "userData",
      "outputs": [
        {
          "internalType": "string",
          "name": "first_name",
          "type": "string"
        },
        {
          "internalType": "string",
          "name": "last_name",
          "type": "string"
        },
        {
          "internalType": "string",
          "name": "middle_name",
          "type": "string"
        },
        {
          "internalType": "string",
          "name": "dob",
          "type": "string"
        },
        {
          "internalType": "string",
          "name": "id_type",
          "type": "string"
        },
        {
          "internalType": "string",
          "name": "id_no",
          "type": "string"
        },
        {
          "internalType": "string",
          "name": "gender",
          "type": "string"
        },
        {
          "internalType": "string",
          "name": "marital_status",
          "type": "string"
        },
        {
          "internalType": "string",
          "name": "caste",
          "type": "string"
        },
        {
          "internalType": "string",
          "name": "religion",
          "type": "string"
        },
        {
          "internalType": "string",
          "name": "profession",
          "type": "string"
        },
        {
          "internalType": "string",
          "name": "phone_number",
          "type": "string"
        },
        {
          "internalType": "string",
          "name": "state",
          "type": "string"
        },
        {
          "internalType": "string",
          "name": "district",
          "type": "string"
        },
        {
          "internalType": "string",
          "name": "local_level",
          "type": "string"
        },
        {
          "internalType": "string",
          "name": "ward_no",
          "type": "string"
        },
        {
          "internalType": "string",
          "name": "village_tole",
          "type": "string"
        },
        {
          "internalType": "string",
          "name": "house_no",
          "type": "string"
        },
        {
          "internalType": "string",
          "name": "temp_state",
          "type": "string"
        },
        {
          "internalType": "string",
          "name": "temp_district",
          "type": "string"
        },
        {
          "internalType": "string",
          "name": "temp_local_level",
          "type": "string"
        },
        {
          "internalType": "string",
          "name": "temp_ward_no",
          "type": "string"
        },
        {
          "internalType": "string",
          "name": "temp_village_tole",
          "type": "string"
        },
        {
          "internalType": "string",
          "name": "temp_house_no",
          "type": "string"
        },
        {
          "internalType": "string",
          "name": "father_first_name",
          "type": "string"
        },
        {
          "internalType": "string",
          "name": "father_middle_name",
          "type": "string"
        },
        {
          "internalType": "string",
          "name": "father_last_name",
          "type": "string"
        },
        {
          "internalType": "string",
          "name": "mother_first_name",
          "type": "string"
        },
        {
          "internalType": "string",
          "name": "mother_middle_name",
          "type": "string"
        },
        {
          "internalType": "string",
          "name": "mother_last_name",
          "type": "string"
        },
        {
          "internalType": "string",
          "name": "spouse_first_name",
          "type": "string"
        },
        {
          "internalType": "string",
          "name": "spouse_middle_name",
          "type": "string"
        },
        {
          "internalType": "string",
          "name": "spouse_last_name",
          "type": "string"
        },
        {
          "internalType": "string",
          "name": "grandfather_first_name",
          "type": "string"
        },
        {
          "internalType": "string",
          "name": "grandfather_middle_name",
          "type": "string"
        },
        {
          "internalType": "string",
          "name": "grandfather_last_name",
          "type": "string"
        },
        {
          "internalType": "string",
          "name": "grandmother_first_name",
          "type": "string"
        },
        {
          "internalType": "string",
          "name": "grandmother_middle_name",
          "type": "string"
        },
        {
          "internalType": "string",
          "name": "grandmother_last_name",
          "type": "string"
        },
        {
          "internalType": "string",
          "name": "status",
          "type": "string"
        }
      ],
      "stateMutability": "view",
      "type": "function"
    }
  ],
  "bytecode": "0x60808060405234610016576140eb908161001c8239f35b600080fdfe610460604052600436101561001357600080fd5b60003560e01c8063130abf4f1461334f57806315b7d3361461330f578063193bee7e14610a5e57806326fd4b4514610a1b5780634c72d948146109eb57806385e6853114610942578063bf806d3e14610919578063c4a85bc114610866578063c891091314610138578063d1e5e434146100f45763e706c6931461009657600080fd5b346100ef5760203660031901126100ef576004356001600160a01b038116908190036100ef5760005260036020526100eb6100d760276040600020016134db565b6040519182916020835260208301906133ff565b0390f35b600080fd5b346100ef5760003660031901126100ef57336000526001602052604060ff816000205416600260205260018060a01b03826000205416825191151582526020820152f35b346100ef5760203660031901126100ef576004356001600160a01b038116908190036100ef57600052600360205260406000208061044052610179906134db565b610280526104405160010161018d906134db565b6102c052610440516002016101a1906134db565b6102a052610440516003016101b5906134db565b61026052610440516004016101c9906134db565b61038052610440516005016101dd906134db565b610440516006016101ed906134db565b610440516007016101fd906134db565b6104405160080161020d906134db565b6104405160090161021d906134db565b61044051600a0161022d906134db565b61044051600b0161023d906134db565b9161044051600c0161024e906134db565b9361044051600d0161025f906134db565b9561044051600e01610270906134db565b9761044051600f01610281906134db565b9961044051601001610292906134db565b61012052610440516011016102a6906134db565b6103c052610440516012016102ba906134db565b61042052610440516013016102ce906134db565b61010052610440516014016102e2906134db565b61040052610440516015016102f6906134db565b60c05261044051601601610309906134db565b610320526104405160170161031d906134db565b6103405261044051601801610331906134db565b60a05261044051601901610344906134db565b6101805261044051601a01610358906134db565b6103e05261044051601b0161036c906134db565b6103a05261044051601c01610380906134db565b6103605261044051601d01610394906134db565b6101605261044051601e016103a8906134db565b6101405261044051601f016103bc906134db565b61020052610440516020016103d0906134db565b60e052610440516021016103e3906134db565b6101a052610440516022016103f7906134db565b6101e0526104405160230161040b906134db565b610300526104405160240161041f906134db565b6102405261044051602501610433906134db565b6101c05261044051602601610447906134db565b610220526104405160270161045b906134db565b608052604051806102e0526105008091526102e05101610280519061047f916133ff565b6102e05180820390602001526102c05190610499916133ff565b6102e05180820390604001526102a051906104b3916133ff565b6102e051808203906060015261026051906104cd916133ff565b6102e051808203906080015261038051906104e7916133ff565b6102e0518082039060a001526104fc916133ff565b6102e0518082039060c00152610511916133ff565b6102e0518082039060e00152610526916133ff565b6102e05180820390610100015261053c916133ff565b6102e051808203906101200152610552916133ff565b6102e051808203906101400152610568916133ff565b6102e05180820390610160015261057e916133ff565b6102e051808203906101800152610594916133ff565b6102e051808203906101a001526105aa916133ff565b6102e051808203906101c001526105c0916133ff565b6102e051808203906101e001526105d6916133ff565b6102e05180820390610200015261012051906105f1916133ff565b6102e0518082039061022001526103c0519061060c916133ff565b6102e0518082039061024001526104205190610627916133ff565b6102e0518082039061026001526101005190610642916133ff565b6102e051808203906102800152610400519061065d916133ff565b6102e051808203906102a0015260c05190610677916133ff565b6102e051808203906102c001526103205190610692916133ff565b6102e051808203906102e0015261034051906106ad916133ff565b6102e05180820390610300015260a051906106c7916133ff565b6102e05180820390610320015261018051906106e2916133ff565b6102e0518082039061034001526103e051906106fd916133ff565b6102e0518082039061036001526103a05190610718916133ff565b6102e0518082039061038001526103605190610733916133ff565b6102e051808203906103a00152610160519061074e916133ff565b6102e051808203906103c001526101405190610769916133ff565b6102e051808203906103e001526102005190610784916133ff565b6102e05180820390610400015260e0519061079e916133ff565b6102e0518082039061042001526101a051906107b9916133ff565b6102e0518082039061044001526101e051906107d4916133ff565b6102e05180820390610460015261030051906107ef916133ff565b6102e051808203906104800152610240519061080a916133ff565b6102e051808203906104a001526101c05190610825916133ff565b6102e051808203906104c001526102205190610840916133ff565b6102e051808203906104e001526102e051906080519061085f916133ff565b036102e051f35b346100ef5760203660031901126100ef576004356001600160a01b038116908190036100ef5760207f47be077097410b560f37e1246fc66026ea96c97005a0aee44ad2b86ea262d8e391336000526003825260276040600020016108d36108cd82546134a1565b82613598565b600e6611dc985b9d195960ca1b0190558060005260008252604060002060ff199060018282541617905533600052600183526040600020908154169055604051908152a1005b346100ef5760003660031901126100ef576100eb61093633613997565b6040519182918261343f565b346100ef5760203660031901126100ef576004356001600160a01b038116908190036100ef5760207fb572534a60770fffddac514e6f51f76960333bf219fdec57566aa50912fdf49c91336000526003825260276040600020016109a96108cd82546134a1565b600c6511195b9a595960d21b0190558060005260008252604060002060ff199081815416905533600052600183526040600020908154169055604051908152a1005b346100ef5760203660031901126100ef576004356001600160a01b03811681036100ef576109366100eb91613997565b346100ef5760203660031901126100ef576004356001600160a01b038116908190036100ef576000526001602052602060ff604060002054166040519015158152f35b346100ef576003196020368201126100ef576001600160401b03600435116100ef576105008091600435360301126100ef576040519081018181106001600160401b038211176121e257604052600435600401356001600160401b0381116100ef57610ad19060043691813501016133a9565b8152602460043501356001600160401b0381116100ef57610af99060043691813501016133a9565b6020820152604460043501356001600160401b0381116100ef57610b249060043691813501016133a9565b6040820152606460043501356001600160401b0381116100ef57610b4f9060043691813501016133a9565b6060820152608460043501356001600160401b0381116100ef57610b7a9060043691813501016133a9565b608082015260a460043501356001600160401b0381116100ef57610ba59060043691813501016133a9565b60a082015260c460043501356001600160401b0381116100ef57610bd09060043691813501016133a9565b60c082015260e460043501356001600160401b0381116100ef57610bfb9060043691813501016133a9565b60e082015261010460043501356001600160401b0381116100ef57610c279060043691813501016133a9565b6101008201526001600160401b036101246004350135116100ef57610c57366004803561012481013501016133a9565b6101208201526001600160401b036101446004350135116100ef57610c87366004803561014481013501016133a9565b6101408201526001600160401b036101646004350135116100ef57610cb7366004803561016481013501016133a9565b6101608201526001600160401b036101846004350135116100ef57610ce7366004803561018481013501016133a9565b6101808201526001600160401b036101a46004350135116100ef57610d1736600480356101a481013501016133a9565b6101a08201526001600160401b036101c46004350135116100ef57610d4736600480356101c481013501016133a9565b6101c08201526001600160401b036101e46004350135116100ef57610d7736600480356101e481013501016133a9565b6101e08201526001600160401b036102046004350135116100ef57610da7366004803561020481013501016133a9565b6102008201526001600160401b036102246004350135116100ef57610dd7366004803561022481013501016133a9565b6102208201526001600160401b036102446004350135116100ef57610e07366004803561024481013501016133a9565b6102408201526001600160401b036102646004350135116100ef57610e37366004803561026481013501016133a9565b6102608201526001600160401b036102846004350135116100ef57610e67366004803561028481013501016133a9565b6102808201526001600160401b036102a46004350135116100ef57610e9736600480356102a481013501016133a9565b6102a08201526001600160401b036102c46004350135116100ef57610ec736600480356102c481013501016133a9565b6102c08201526001600160401b036102e46004350135116100ef57610ef736600480356102e481013501016133a9565b6102e08201526001600160401b036103046004350135116100ef57610f27366004803561030481013501016133a9565b6103008201526001600160401b036103246004350135116100ef57610f57366004803561032481013501016133a9565b6103208201526001600160401b036103446004350135116100ef57610f87366004803561034481013501016133a9565b6103408201526001600160401b036103646004350135116100ef57610fb7366004803561036481013501016133a9565b6103608201526001600160401b036103846004350135116100ef57610fe7366004803561038481013501016133a9565b6103808201526001600160401b036103a46004350135116100ef5761101736600480356103a481013501016133a9565b6103a08201526001600160401b036103c46004350135116100ef5761104736600480356103c481013501016133a9565b6103c08201526001600160401b036103e46004350135116100ef5761107736600480356103e481013501016133a9565b6103e08201526001600160401b036104046004350135116100ef576110a7366004803561040481013501016133a9565b6104008201526001600160401b036104246004350135116100ef576110d7366004803561042481013501016133a9565b6104208201526001600160401b036104446004350135116100ef57611107366004803561044481013501016133a9565b6104408201526001600160401b036104646004350135116100ef57611137366004803561046481013501016133a9565b6104608201526001600160401b036104846004350135116100ef57611167366004803561048481013501016133a9565b6104808201526001600160401b036104a46004350135116100ef5761119736600480356104a481013501016133a9565b6104a08201526001600160401b036104c46004350135116100ef576111c736600480356104c481013501016133a9565b6104c08201526001600160401b036104e46004350135116100ef576111f736600480356104e481013501016133a9565b6104e0820152805190336000526003602052604060002082516001600160401b0381116121e2576112328161122c84546134a1565b846135c0565b6020601f82116001146132a7578192939460009261329c575b50508160011b916000199060031b1c19161790555b602081015190336000526003602052600160406000200182516001600160401b0381116121e2576112958161122c84546134a1565b6020601f82116001146132345781929394600092613229575b50508160011b916000199060031b1c19161790555b604081015190336000526003602052600260406000200182516001600160401b0381116121e2576112f88161122c84546134a1565b6020601f82116001146131c157819293946000926131b6575b50508160011b916000199060031b1c19161790555b606081015190336000526003602052600360406000200182516001600160401b0381116121e25761135b8161122c84546134a1565b6020601f821160011461314e5781929394600092613143575b50508160011b916000199060031b1c19161790555b608081015190336000526003602052600460406000200182516001600160401b0381116121e2576113be8161122c84546134a1565b6020601f82116001146130db57819293946000926130d0575b50508160011b916000199060031b1c19161790555b60a081015190336000526003602052600560406000200182516001600160401b0381116121e2576114218161122c84546134a1565b6020601f8211600114613068578192939460009261305d575b50508160011b916000199060031b1c19161790555b60c081015190336000526003602052600660406000200182516001600160401b0381116121e2576114848161122c84546134a1565b6020601f8211600114612ff55781929394600092612fea575b50508160011b916000199060031b1c19161790555b60e081015190336000526003602052600760406000200182516001600160401b0381116121e2576114e78161122c84546134a1565b6020601f8211600114612f825781929394600092612f77575b50508160011b916000199060031b1c19161790555b61010081015190336000526003602052600860406000200182516001600160401b0381116121e25761154b8161122c84546134a1565b6020601f8211600114612f0f5781929394600092612f04575b50508160011b916000199060031b1c19161790555b61012081015190336000526003602052600960406000200182516001600160401b0381116121e2576115af8161122c84546134a1565b6020601f8211600114612e9c5781929394600092612e91575b50508160011b916000199060031b1c19161790555b61014081015190336000526003602052600a60406000200182516001600160401b0381116121e2576116138161122c84546134a1565b6020601f8211600114612e295781929394600092612e1e575b50508160011b916000199060031b1c19161790555b61016081015190336000526003602052600b60406000200182516001600160401b0381116121e2576116778161122c84546134a1565b6020601f8211600114612db65781929394600092612dab575b50508160011b916000199060031b1c19161790555b61018081015190336000526003602052600c60406000200182516001600160401b0381116121e2576116db8161122c84546134a1565b6020601f8211600114612d435781929394600092612d38575b50508160011b916000199060031b1c19161790555b6101a081015190336000526003602052600d60406000200182516001600160401b0381116121e25761173f8161122c84546134a1565b6020601f8211600114612cd05781929394600092612cc5575b50508160011b916000199060031b1c19161790555b6101c081015190336000526003602052600e60406000200182516001600160401b0381116121e2576117a38161122c84546134a1565b6020601f8211600114612c5d5781929394600092612c52575b50508160011b916000199060031b1c19161790555b6101e081015190336000526003602052600f60406000200182516001600160401b0381116121e2576118078161122c84546134a1565b6020601f8211600114612bea5781929394600092612bdf575b50508160011b916000199060031b1c19161790555b61020081015190336000526003602052601060406000200182516001600160401b0381116121e25761186b8161122c84546134a1565b6020601f8211600114612b775781929394600092612b6c575b50508160011b916000199060031b1c19161790555b61022081015190336000526003602052601160406000200182516001600160401b0381116121e2576118cf8161122c84546134a1565b6020601f8211600114612b045781929394600092612af9575b50508160011b916000199060031b1c19161790555b61024081015190336000526003602052601260406000200182516001600160401b0381116121e2576119338161122c84546134a1565b6020601f8211600114612a915781929394600092612a86575b50508160011b916000199060031b1c19161790555b61026081015190336000526003602052601360406000200182516001600160401b0381116121e2576119978161122c84546134a1565b6020601f8211600114612a1e5781929394600092612a13575b50508160011b916000199060031b1c19161790555b61028081015190336000526003602052601460406000200182516001600160401b0381116121e2576119fb8161122c84546134a1565b6020601f82116001146129ab57819293946000926129a0575b50508160011b916000199060031b1c19161790555b6102a081015190336000526003602052601560406000200182516001600160401b0381116121e257611a5f8161122c84546134a1565b6020601f8211600114612938578192939460009261292d575b50508160011b916000199060031b1c19161790555b6102c081015190336000526003602052601660406000200182516001600160401b0381116121e257611ac38161122c84546134a1565b6020601f82116001146128c557819293946000926128ba575b50508160011b916000199060031b1c19161790555b6102e081015190336000526003602052601760406000200182516001600160401b0381116121e257611b278161122c84546134a1565b6020601f82116001146128525781929394600092612847575b50508160011b916000199060031b1c19161790555b61030081015190336000526003602052601860406000200182516001600160401b0381116121e257611b8b8161122c84546134a1565b6020601f82116001146127df57819293946000926127d4575b50508160011b916000199060031b1c19161790555b61034081015190336000526003602052601a60406000200182516001600160401b0381116121e257611bef8161122c84546134a1565b6020601f821160011461276c5781929394600092612761575b50508160011b916000199060031b1c19161790555b61032081015190336000526003602052601960406000200182516001600160401b0381116121e257611c538161122c84546134a1565b6020601f82116001146126f957819293946000926126ee575b50508160011b916000199060031b1c19161790555b61036081015190336000526003602052601b60406000200182516001600160401b0381116121e257611cb78161122c84546134a1565b6020601f8211600114612686578192939460009261267b575b50508160011b916000199060031b1c19161790555b6103a081015190336000526003602052601d60406000200182516001600160401b0381116121e257611d1b8161122c84546134a1565b6020601f82116001146126135781929394600092612608575b50508160011b916000199060031b1c19161790555b61038081015190336000526003602052601c60406000200182516001600160401b0381116121e257611d7f8161122c84546134a1565b6020601f82116001146125a05781929394600092612595575b50508160011b916000199060031b1c19161790555b6103c081015190336000526003602052601e60406000200182516001600160401b0381116121e257611de38161122c84546134a1565b6020601f821160011461252d5781929394600092612522575b50508160011b916000199060031b1c19161790555b61040081015190336000526003602052602060406000200182516001600160401b0381116121e257611e478161122c84546134a1565b6020601f82116001146124ba57819293946000926124af575b50508160011b916000199060031b1c19161790555b6103e081015190336000526003602052601f60406000200182516001600160401b0381116121e257611eab8161122c84546134a1565b6020601f8211600114612447578192939460009261243c575b50508160011b916000199060031b1c19161790555b61042081015190336000526003602052602160406000200182516001600160401b0381116121e257611f0f8161122c84546134a1565b6020601f82116001146123d457819293946000926123c9575b50508160011b916000199060031b1c19161790555b61046081015190336000526003602052602360406000200182516001600160401b0381116121e257611f738161122c84546134a1565b6020601f82116001146123615781929394600092612356575b50508160011b916000199060031b1c19161790555b61044081015190336000526003602052602260406000200182516001600160401b0381116121e257611fd78161122c84546134a1565b6020601f82116001146122ee57819293946000926122e3575b50508160011b916000199060031b1c19161790555b61048081015190336000526003602052602460406000200182516001600160401b0381116121e25761203b8161122c84546134a1565b6020601f821160011461227b5781929394600092612270575b50508160011b916000199060031b1c19161790555b6104c08101519033600052600360205260266040600020018251926001600160401b0384116121e2576120a08461122c84546134a1565b602090601f8511600114612203576104a09491600091836121f8575b50508160011b916000199060031b1c19161790555b0151336000526003602052602560406000200181516001600160401b0381116121e2576121028161122c84546134a1565b602092601f821160011461217e5792819293600092612173575b50508160011b916000199060031b1c19161790555b336000526001602052604060002060ff1981541690557fd05e9f060c4d63fdf1ea5b7d706724b60537e22d729335c17da320380a72c7266020604051338152a1005b01519050838061211c565b601f198216938360005260206000209160005b8681106121ca57508360019596106121b1575b505050811b019055612131565b015160001960f88460031b161c191690558380806121a4565b91926020600181928685015181550194019201612191565b634e487b7160e01b600052604160045260246000fd5b0151905085806120bc565b908260005260206000209160005b601f198716811061225857509185916001936104a097601f1981161061223f575b505050811b0190556120d1565b015160001960f88460031b161c19169055858080612232565b91926020600181928685015181550194019201612211565b015190508480612054565b8260005260206000209060005b601f19841681106122cb5750600193949583601f198116106122b2575b505050811b019055612069565b015160001960f88460031b161c191690558480806122a5565b9091602060018192858a015181550193019101612288565b015190508480611ff0565b8260005260206000209060005b601f198416811061233e5750600193949583601f19811610612325575b505050811b019055612005565b015160001960f88460031b161c19169055848080612318565b9091602060018192858a0151815501930191016122fb565b015190508480611f8c565b8260005260206000209060005b601f19841681106123b15750600193949583601f19811610612398575b505050811b019055611fa1565b015160001960f88460031b161c1916905584808061238b565b9091602060018192858a01518155019301910161236e565b015190508480611f28565b8260005260206000209060005b601f19841681106124245750600193949583601f1981161061240b575b505050811b019055611f3d565b015160001960f88460031b161c191690558480806123fe565b9091602060018192858a0151815501930191016123e1565b015190508480611ec4565b8260005260206000209060005b601f19841681106124975750600193949583601f1981161061247e575b505050811b019055611ed9565b015160001960f88460031b161c19169055848080612471565b9091602060018192858a015181550193019101612454565b015190508480611e60565b8260005260206000209060005b601f198416811061250a5750600193949583601f198116106124f1575b505050811b019055611e75565b015160001960f88460031b161c191690558480806124e4565b9091602060018192858a0151815501930191016124c7565b015190508480611dfc565b8260005260206000209060005b601f198416811061257d5750600193949583601f19811610612564575b505050811b019055611e11565b015160001960f88460031b161c19169055848080612557565b9091602060018192858a01518155019301910161253a565b015190508480611d98565b8260005260206000209060005b601f19841681106125f05750600193949583601f198116106125d7575b505050811b019055611dad565b015160001960f88460031b161c191690558480806125ca565b9091602060018192858a0151815501930191016125ad565b015190508480611d34565b8260005260206000209060005b601f19841681106126635750600193949583601f1981161061264a575b505050811b019055611d49565b015160001960f88460031b161c1916905584808061263d565b9091602060018192858a015181550193019101612620565b015190508480611cd0565b8260005260206000209060005b601f19841681106126d65750600193949583601f198116106126bd575b505050811b019055611ce5565b015160001960f88460031b161c191690558480806126b0565b9091602060018192858a015181550193019101612693565b015190508480611c6c565b8260005260206000209060005b601f19841681106127495750600193949583601f19811610612730575b505050811b019055611c81565b015160001960f88460031b161c19169055848080612723565b9091602060018192858a015181550193019101612706565b015190508480611c08565b8260005260206000209060005b601f19841681106127bc5750600193949583601f198116106127a3575b505050811b019055611c1d565b015160001960f88460031b161c19169055848080612796565b9091602060018192858a015181550193019101612779565b015190508480611ba4565b8260005260206000209060005b601f198416811061282f5750600193949583601f19811610612816575b505050811b019055611bb9565b015160001960f88460031b161c19169055848080612809565b9091602060018192858a0151815501930191016127ec565b015190508480611b40565b8260005260206000209060005b601f19841681106128a25750600193949583601f19811610612889575b505050811b019055611b55565b015160001960f88460031b161c1916905584808061287c565b9091602060018192858a01518155019301910161285f565b015190508480611adc565b8260005260206000209060005b601f19841681106129155750600193949583601f198116106128fc575b505050811b019055611af1565b015160001960f88460031b161c191690558480806128ef565b9091602060018192858a0151815501930191016128d2565b015190508480611a78565b8260005260206000209060005b601f19841681106129885750600193949583601f1981161061296f575b505050811b019055611a8d565b015160001960f88460031b161c19169055848080612962565b9091602060018192858a015181550193019101612945565b015190508480611a14565b8260005260206000209060005b601f19841681106129fb5750600193949583601f198116106129e2575b505050811b019055611a29565b015160001960f88460031b161c191690558480806129d5565b9091602060018192858a0151815501930191016129b8565b0151905084806119b0565b8260005260206000209060005b601f1984168110612a6e5750600193949583601f19811610612a55575b505050811b0190556119c5565b015160001960f88460031b161c19169055848080612a48565b9091602060018192858a015181550193019101612a2b565b01519050848061194c565b8260005260206000209060005b601f1984168110612ae15750600193949583601f19811610612ac8575b505050811b019055611961565b015160001960f88460031b161c19169055848080612abb565b9091602060018192858a015181550193019101612a9e565b0151905084806118e8565b8260005260206000209060005b601f1984168110612b545750600193949583601f19811610612b3b575b505050811b0190556118fd565b015160001960f88460031b161c19169055848080612b2e565b9091602060018192858a015181550193019101612b11565b015190508480611884565b8260005260206000209060005b601f1984168110612bc75750600193949583601f19811610612bae575b505050811b019055611899565b015160001960f88460031b161c19169055848080612ba1565b9091602060018192858a015181550193019101612b84565b015190508480611820565b8260005260206000209060005b601f1984168110612c3a5750600193949583601f19811610612c21575b505050811b019055611835565b015160001960f88460031b161c19169055848080612c14565b9091602060018192858a015181550193019101612bf7565b0151905084806117bc565b8260005260206000209060005b601f1984168110612cad5750600193949583601f19811610612c94575b505050811b0190556117d1565b015160001960f88460031b161c19169055848080612c87565b9091602060018192858a015181550193019101612c6a565b015190508480611758565b8260005260206000209060005b601f1984168110612d205750600193949583601f19811610612d07575b505050811b01905561176d565b015160001960f88460031b161c19169055848080612cfa565b9091602060018192858a015181550193019101612cdd565b0151905084806116f4565b8260005260206000209060005b601f1984168110612d935750600193949583601f19811610612d7a575b505050811b019055611709565b015160001960f88460031b161c19169055848080612d6d565b9091602060018192858a015181550193019101612d50565b015190508480611690565b8260005260206000209060005b601f1984168110612e065750600193949583601f19811610612ded575b505050811b0190556116a5565b015160001960f88460031b161c19169055848080612de0565b9091602060018192858a015181550193019101612dc3565b01519050848061162c565b8260005260206000209060005b601f1984168110612e795750600193949583601f19811610612e60575b505050811b019055611641565b015160001960f88460031b161c19169055848080612e53565b9091602060018192858a015181550193019101612e36565b0151905084806115c8565b8260005260206000209060005b601f1984168110612eec5750600193949583601f19811610612ed3575b505050811b0190556115dd565b015160001960f88460031b161c19169055848080612ec6565b9091602060018192858a015181550193019101612ea9565b015190508480611564565b8260005260206000209060005b601f1984168110612f5f5750600193949583601f19811610612f46575b505050811b019055611579565b015160001960f88460031b161c19169055848080612f39565b9091602060018192858a015181550193019101612f1c565b015190508480611500565b8260005260206000209060005b601f1984168110612fd25750600193949583601f19811610612fb9575b505050811b019055611515565b015160001960f88460031b161c19169055848080612fac565b9091602060018192858a015181550193019101612f8f565b01519050848061149d565b8260005260206000209060005b601f19841681106130455750600193949583601f1981161061302c575b505050811b0190556114b2565b015160001960f88460031b161c1916905584808061301f565b9091602060018192858a015181550193019101613002565b01519050848061143a565b8260005260206000209060005b601f19841681106130b85750600193949583601f1981161061309f575b505050811b01905561144f565b015160001960f88460031b161c19169055848080613092565b9091602060018192858a015181550193019101613075565b0151905084806113d7565b8260005260206000209060005b601f198416811061312b5750600193949583601f19811610613112575b505050811b0190556113ec565b015160001960f88460031b161c19169055848080613105565b9091602060018192858a0151815501930191016130e8565b015190508480611374565b8260005260206000209060005b601f198416811061319e5750600193949583601f19811610613185575b505050811b019055611389565b015160001960f88460031b161c19169055848080613178565b9091602060018192858a01518155019301910161315b565b015190508480611311565b8260005260206000209060005b601f19841681106132115750600193949583601f198116106131f8575b505050811b019055611326565b015160001960f88460031b161c191690558480806131eb565b9091602060018192858a0151815501930191016131ce565b0151905084806112ae565b8260005260206000209060005b601f19841681106132845750600193949583601f1981161061326b575b505050811b0190556112c3565b015160001960f88460031b161c1916905584808061325e565b9091602060018192858a015181550193019101613241565b01519050848061124b565b8260005260206000209060005b601f19841681106132f75750600193949583601f198116106132de575b505050811b019055611260565b015160001960f88460031b161c191690558480806132d1565b9091602060018192858a0151815501930191016132b4565b346100ef5760203660031901126100ef576004356001600160a01b03818116918290036100ef576020916000526002825260406000205416604051908152f35b346100ef5760203660031901126100ef576004356001600160a01b03811681036100ef5761337e602091613605565b6040519015158152f35b90601f801991011681019081106001600160401b038211176121e257604052565b81601f820112156100ef578035906001600160401b0382116121e257604051926133dd601f8401601f191660200185613388565b828452602083830101116100ef57816000926020809301838601378301015290565b919082519283825260005b84811061342b575050826000602080949584010152601f8019910116010190565b60208183018101518483018201520161340a565b602080820190808352835180925260408301928160408460051b8301019501936000915b8483106134735750505050505090565b9091929394958480613491600193603f198682030187528a516133ff565b9801930193019194939290613463565b90600182811c921680156134d1575b60208310146134bb57565b634e487b7160e01b600052602260045260246000fd5b91607f16916134b0565b90604051918260008254926134ef846134a1565b90818452600194858116908160001461355e575060011461351b575b505061351992500383613388565b565b9093915060005260209081600020936000915b8183106135465750506135199350820101388061350b565b8554888401850152948501948794509183019161352e565b91505061351994506020925060ff191682840152151560051b820101388061350b565b81811061358c575050565b60008155600101613581565b90601f81116135a5575050565b61351991600052601f6020600020910160051c810190613581565b9190601f81116135cf57505050565b613519926000526020600020906020601f840160051c830193106135fb575b601f0160051c0190613581565b90915081906135ee565b60018060a01b03809116600091818352602091600283526040918285205416331460001461366b578382917fc0f3a67aa9ba061ea31645e29ee6400403de6e06f65b191b6b891dffc8c4882d9552600184522060ff1981541690555160018152a1600190565b907fb58f6102f789cf25950e63d8eecc8d0806c1b52fc17eed084004ad4cd39f7beb81849360017fc0f3a67aa9ba061ea31645e29ee6400403de6e06f65b191b6b891dffc8c4882d9652818720600160ff1982541617905560028552818720336bffffffffffffffffffffffff60a01b82541617905581519081523385820152a151838152a190565b8051156137015760200190565b634e487b7160e01b600052603260045260246000fd5b8051600110156137015760400190565b8051600210156137015760600190565b8051600310156137015760800190565b8051600410156137015760a00190565b8051600510156137015760c00190565b8051600610156137015760e00190565b805160071015613701576101000190565b805160081015613701576101200190565b805160091015613701576101400190565b8051600a1015613701576101600190565b8051600b1015613701576101800190565b8051600c1015613701576101a00190565b8051600d1015613701576101c00190565b8051600e1015613701576101e00190565b8051600f1015613701576102000190565b805160101015613701576102200190565b805160111015613701576102400190565b805160121015613701576102600190565b805160131015613701576102800190565b805160141015613701576102a00190565b805160151015613701576102c00190565b805160161015613701576102e00190565b805160171015613701576103000190565b805160181015613701576103200190565b805160191015613701576103400190565b8051601a1015613701576103600190565b8051601b1015613701576103800190565b8051601c1015613701576103a00190565b8051601d1015613701576103c00190565b8051601e1015613701576103e00190565b8051601f1015613701576104000190565b805160201015613701576104200190565b805160211015613701576104400190565b805160221015613701576104600190565b805160231015613701576104800190565b805160241015613701576104a00190565b805160251015613701576104c00190565b805160261015613701576104e00190565b60409081519161050083018381106001600160401b038211176121e25781526027835260005b6104e081106140a4575060018060a01b0380921691826000526003926020938085526139eb846000206134db565b6139f4876136f4565b526139fe866136f4565b5081600052808552613a15600185600020016134db565b613a1e87613717565b52613a2886613717565b5081600052808552613a3f600285600020016134db565b613a4887613727565b52613a5286613727565b5081600052808552613a688185600020016134db565b613a7187613737565b52613a7b86613737565b5081600052808552613a92600485600020016134db565b613a9b87613747565b52613aa586613747565b5081600052808552613abc600585600020016134db565b613ac587613757565b52613acf86613757565b5081600052808552613ae6600685600020016134db565b613aef87613767565b52613af986613767565b5081600052808552613b10600785600020016134db565b613b1987613777565b52613b2386613777565b5081600052808552613b3a600885600020016134db565b613b4387613788565b52613b4d86613788565b5081600052808552613b64600985600020016134db565b613b6d87613799565b52613b7786613799565b5081600052808552613b8e600a85600020016134db565b613b97876137aa565b52613ba1866137aa565b5081600052808552613bb8600b85600020016134db565b613bc1876137bb565b52613bcb866137bb565b5081600052808552613be2600c85600020016134db565b613beb876137cc565b52613bf5866137cc565b5081600052808552613c0c600d85600020016134db565b613c15876137dd565b52613c1f866137dd565b5081600052808552613c36600e85600020016134db565b613c3f876137ee565b52613c49866137ee565b5081600052808552613c60600f85600020016134db565b613c69876137ff565b52613c73866137ff565b5081600052808552613c8a601085600020016134db565b613c9387613810565b52613c9d86613810565b5081600052808552613cb4601185600020016134db565b613cbd87613821565b52613cc786613821565b5081600052808552613cde601285600020016134db565b613ce787613832565b52613cf186613832565b5081600052808552613d08601385600020016134db565b613d1187613843565b52613d1b86613843565b5081600052808552613d32601485600020016134db565b613d3b87613854565b52613d4586613854565b5081600052808552613d5c601585600020016134db565b613d6587613865565b52613d6f86613865565b5081600052808552613d86601685600020016134db565b613d8f87613876565b52613d9986613876565b5081600052808552613db0601785600020016134db565b613db987613887565b52613dc386613887565b5081600052808552613dda601885600020016134db565b613de387613898565b52613ded86613898565b5081600052808552613e04601985600020016134db565b613e0d876138a9565b52613e17866138a9565b5081600052808552613e2e601a85600020016134db565b613e37876138ba565b52613e41866138ba565b5081600052808552613e58601b85600020016134db565b613e61876138cb565b52613e6b866138cb565b5081600052808552613e82601c85600020016134db565b613e8b876138dc565b52613e95866138dc565b5081600052808552613eac601d85600020016134db565b613eb5876138ed565b52613ebf866138ed565b5081600052808552613ed6601e85600020016134db565b613edf876138fe565b52613ee9866138fe565b5081600052808552613f00601f85600020016134db565b613f098761390f565b52613f138661390f565b5081600052808552613f298585600020016134db565b613f3287613920565b52613f3c86613920565b5081600052808552613f53602185600020016134db565b613f5c87613931565b52613f6686613931565b5081600052808552613f7d602285600020016134db565b613f8687613942565b52613f9086613942565b5081600052808552613fa7602385600020016134db565b613fb087613953565b52613fba86613953565b5081600052808552613fd1602485600020016134db565b613fda87613964565b52613fe486613964565b5081600052808552613ffb602585600020016134db565b61400487613975565b5261400e86613975565b50816000528452614024602684600020016134db565b61402d86613986565b5261403785613986565b5033811461409d57600052600283528160002054166000526000825260ff8160002054161561406557505090565b60649250519062461bcd60e51b8252600482015260126024820152711058d8d95cdcc81b9bdd08185b1b1bddd95960721b6044820152fd5b5050505090565b8060606020809387010152016139bd56fea26469706673582212203f0a63f66608541419251abd0975e90598d1f9c050d67024817cd6df0733f90764736f6c63430008110033",
  "linkReferences": {},
  "deployedLinkReferences": {}
}