{
  "_format": "hh-sol-artifact-1",
  "contractName": "KycForm",
  "sourceName": "contracts/KyCForm.sol",
  "abi": [
    {
      "anonymous": false,
      "inputs": [
        {
          "indexed": false,
          "internalType": "address",
          "name": "bank",
          "type": "address"
        }
      ],
      "name": "DataAccessDenied",
      "type": "event"
    },
    {
      "anonymous": false,
      "inputs": [
        {
          "indexed": false,
          "internalType": "address",
          "name": "bank",
          "type": "address"
        }
      ],
      "name": "DataAccessGranted",
      "type": "event"
    },
    {
      "anonymous": false,
      "inputs": [
        {
          "indexed": false,
          "internalType": "address",
          "name": "user",
          "type": "address"
        },
        {
          "indexed": false,
          "internalType": "address",
          "name": "bank",
          "type": "address"
        }
      ],
      "name": "DataAccessRequested",
      "type": "event"
    },
    {
      "anonymous": false,
      "inputs": [
        {
          "indexed": false,
          "internalType": "address",
          "name": "user",
          "type": "address"
        }
      ],
      "name": "FormDataStored",
      "type": "event"
    },
    {
      "anonymous": false,
      "inputs": [
        {
          "indexed": false,
          "internalType": "bool",
          "name": "status",
          "type": "bool"
        }
      ],
      "name": "requested",
      "type": "event"
    },
    {
      "inputs": [
        {
          "internalType": "address",
          "name": "_receiver",
          "type": "address"
        }
      ],
      "name": "allowAccess",
      "outputs": [],
      "stateMutability": "nonpayable",
      "type": "function"
    },
    {
      "inputs": [
        {
          "internalType": "address",
          "name": "",
          "type": "address"
        }
      ],
      "name": "bankAddress",
      "outputs": [
        {
          "internalType": "address",
          "name": "",
          "type": "address"
        }
      ],
      "stateMutability": "view",
      "type": "function"
    },
    {
      "inputs": [
        {
          "internalType": "address",
          "name": "_user",
          "type": "address"
        }
      ],
      "name": "getFormData",
      "outputs": [
        {
          "internalType": "string[]",
          "name": "",
          "type": "string[]"
        }
      ],
      "stateMutability": "view",
      "type": "function"
    },
    {
      "inputs": [],
      "name": "getIsAsking",
      "outputs": [
        {
          "internalType": "bool",
          "name": "",
          "type": "bool"
        },
        {
          "internalType": "address",
          "name": "",
          "type": "address"
        }
      ],
      "stateMutability": "view",
      "type": "function"
    },
    {
      "inputs": [],
      "name": "getOwnData",
      "outputs": [
        {
          "internalType": "string[]",
          "name": "",
          "type": "string[]"
        }
      ],
      "stateMutability": "view",
      "type": "function"
    },
    {
      "inputs": [
        {
          "internalType": "address",
          "name": "",
          "type": "address"
        }
      ],
      "name": "isAsking",
      "outputs": [
        {
          "internalType": "bool",
          "name": "",
          "type": "bool"
        }
      ],
      "stateMutability": "view",
      "type": "function"
    },
    {
      "inputs": [
        {
          "internalType": "address",
          "name": "_userAddress",
          "type": "address"
        }
      ],
      "name": "requestDataAccess",
      "outputs": [
        {
          "internalType": "bool",
          "name": "",
          "type": "bool"
        }
      ],
      "stateMutability": "nonpayable",
      "type": "function"
    },
    {
      "inputs": [
        {
          "internalType": "address",
          "name": "_receiver",
          "type": "address"
        }
      ],
      "name": "revokeAccess",
      "outputs": [],
      "stateMutability": "nonpayable",
      "type": "function"
    },
    {
      "inputs": [
        {
          "components": [
            {
              "internalType": "string",
              "name": "first_name",
              "type": "string"
            },
            {
              "internalType": "string",
              "name": "last_name",
              "type": "string"
            },
            {
              "internalType": "string",
              "name": "middle_name",
              "type": "string"
            },
            {
              "internalType": "string",
              "name": "dob",
              "type": "string"
            },
            {
              "internalType": "string",
              "name": "id_type",
              "type": "string"
            },
            {
              "internalType": "string",
              "name": "id_no",
              "type": "string"
            },
            {
              "internalType": "string",
              "name": "gender",
              "type": "string"
            },
            {
              "internalType": "string",
              "name": "marital_status",
              "type": "string"
            },
            {
              "internalType": "string",
              "name": "caste",
              "type": "string"
            },
            {
              "internalType": "string",
              "name": "religion",
              "type": "string"
            },
            {
              "internalType": "string",
              "name": "profession",
              "type": "string"
            },
            {
              "internalType": "string",
              "name": "phone_number",
              "type": "string"
            },
            {
              "internalType": "string",
              "name": "state",
              "type": "string"
            },
            {
              "internalType": "string",
              "name": "district",
              "type": "string"
            },
            {
              "internalType": "string",
              "name": "local_level",
              "type": "string"
            },
            {
              "internalType": "string",
              "name": "ward_no",
              "type": "string"
            },
            {
              "internalType": "string",
              "name": "village_tole",
              "type": "string"
            },
            {
              "internalType": "string",
              "name": "house_no",
              "type": "string"
            },
            {
              "internalType": "string",
              "name": "temp_state",
              "type": "string"
            },
            {
              "internalType": "string",
              "name": "temp_district",
              "type": "string"
            },
            {
              "internalType": "string",
              "name": "temp_local_level",
              "type": "string"
            },
            {
              "internalType": "string",
              "name": "temp_ward_no",
              "type": "string"
            },
            {
              "internalType": "string",
              "name": "temp_village_tole",
              "type": "string"
            },
            {
              "internalType": "string",
              "name": "temp_house_no",
              "type": "string"
            },
            {
              "internalType": "string",
              "name": "father_first_name",
              "type": "string"
            },
            {
              "internalType": "string",
              "name": "father_middle_name",
              "type": "string"
            },
            {
              "internalType": "string",
              "name": "father_last_name",
              "type": "string"
            },
            {
              "internalType": "string",
              "name": "mother_first_name",
              "type": "string"
            },
            {
              "internalType": "string",
              "name": "mother_middle_name",
              "type": "string"
            },
            {
              "internalType": "string",
              "name": "mother_last_name",
              "type": "string"
            },
            {
              "internalType": "string",
              "name": "spouse_first_name",
              "type": "string"
            },
            {
              "internalType": "string",
              "name": "spouse_middle_name",
              "type": "string"
            },
            {
              "internalType": "string",
              "name": "spouse_last_name",
              "type": "string"
            },
            {
              "internalType": "string",
              "name": "grandfather_first_name",
              "type": "string"
            },
            {
              "internalType": "string",
              "name": "grandfather_middle_name",
              "type": "string"
            },
            {
              "internalType": "string",
              "name": "grandfather_last_name",
              "type": "string"
            },
            {
              "internalType": "string",
              "name": "grandmother_first_name",
              "type": "string"
            },
            {
              "internalType": "string",
              "name": "grandmother_middle_name",
              "type": "string"
            },
            {
              "internalType": "string",
              "name": "grandmother_last_name",
              "type": "string"
            }
          ],
          "internalType": "struct KycForm.UserData",
          "name": "_userData",
          "type": "tuple"
        }
      ],
      "name": "storeFormData",
      "outputs": [],
      "stateMutability": "nonpayable",
      "type": "function"
    },
    {
      "inputs": [
        {
          "internalType": "address",
          "name": "",
          "type": "address"
        }
      ],
      "name": "userData",
      "outputs": [
        {
          "internalType": "string",
          "name": "first_name",
          "type": "string"
        },
        {
          "internalType": "string",
          "name": "last_name",
          "type": "string"
        },
        {
          "internalType": "string",
          "name": "middle_name",
          "type": "string"
        },
        {
          "internalType": "string",
          "name": "dob",
          "type": "string"
        },
        {
          "internalType": "string",
          "name": "id_type",
          "type": "string"
        },
        {
          "internalType": "string",
          "name": "id_no",
          "type": "string"
        },
        {
          "internalType": "string",
          "name": "gender",
          "type": "string"
        },
        {
          "internalType": "string",
          "name": "marital_status",
          "type": "string"
        },
        {
          "internalType": "string",
          "name": "caste",
          "type": "string"
        },
        {
          "internalType": "string",
          "name": "religion",
          "type": "string"
        },
        {
          "internalType": "string",
          "name": "profession",
          "type": "string"
        },
        {
          "internalType": "string",
          "name": "phone_number",
          "type": "string"
        },
        {
          "internalType": "string",
          "name": "state",
          "type": "string"
        },
        {
          "internalType": "string",
          "name": "district",
          "type": "string"
        },
        {
          "internalType": "string",
          "name": "local_level",
          "type": "string"
        },
        {
          "internalType": "string",
          "name": "ward_no",
          "type": "string"
        },
        {
          "internalType": "string",
          "name": "village_tole",
          "type": "string"
        },
        {
          "internalType": "string",
          "name": "house_no",
          "type": "string"
        },
        {
          "internalType": "string",
          "name": "temp_state",
          "type": "string"
        },
        {
          "internalType": "string",
          "name": "temp_district",
          "type": "string"
        },
        {
          "internalType": "string",
          "name": "temp_local_level",
          "type": "string"
        },
        {
          "internalType": "string",
          "name": "temp_ward_no",
          "type": "string"
        },
        {
          "internalType": "string",
          "name": "temp_village_tole",
          "type": "string"
        },
        {
          "internalType": "string",
          "name": "temp_house_no",
          "type": "string"
        },
        {
          "internalType": "string",
          "name": "father_first_name",
          "type": "string"
        },
        {
          "internalType": "string",
          "name": "father_middle_name",
          "type": "string"
        },
        {
          "internalType": "string",
          "name": "father_last_name",
          "type": "string"
        },
        {
          "internalType": "string",
          "name": "mother_first_name",
          "type": "string"
        },
        {
          "internalType": "string",
          "name": "mother_middle_name",
          "type": "string"
        },
        {
          "internalType": "string",
          "name": "mother_last_name",
          "type": "string"
        },
        {
          "internalType": "string",
          "name": "spouse_first_name",
          "type": "string"
        },
        {
          "internalType": "string",
          "name": "spouse_middle_name",
          "type": "string"
        },
        {
          "internalType": "string",
          "name": "spouse_last_name",
          "type": "string"
        },
        {
          "internalType": "string",
          "name": "grandfather_first_name",
          "type": "string"
        },
        {
          "internalType": "string",
          "name": "grandfather_middle_name",
          "type": "string"
        },
        {
          "internalType": "string",
          "name": "grandfather_last_name",
          "type": "string"
        },
        {
          "internalType": "string",
          "name": "grandmother_first_name",
          "type": "string"
        },
        {
          "internalType": "string",
          "name": "grandmother_middle_name",
          "type": "string"
        },
        {
          "internalType": "string",
          "name": "grandmother_last_name",
          "type": "string"
        }
      ],
      "stateMutability": "view",
      "type": "function"
    }
  ],
  "bytecode": "0x6080806040523461001657614a6c908161001c8239f35b600080fdfe610440604052600436101561001357600080fd5b60003560e01c8063130abf4f14613d5457806315b7d33614613d1457806326fd4b4514613cd15780634c72d94814613ca157806385e6853114613c24578063bf806d3e14613bf7578063c4a85bc114613b77578063c89109131461349d578063ccd3ba1f146100d45763d1e5e4341461008b57600080fd5b346100cf5760003660031901126100cf57336000526001602052604060ff816000205416600260205260018060a01b03826000205416825191151582526020820152f35b600080fd5b346100cf576003196020368201126100cf576001600160401b03600435116100cf576104e08091600435360301126100cf576040519081018181106001600160401b0382111761195457604052600435600401356001600160401b0381116100cf57610147906004369181350101613f30565b8152602460043501356001600160401b0381116100cf5761016f906004369181350101613f30565b6020820152604460043501356001600160401b0381116100cf5761019a906004369181350101613f30565b6040820152606460043501356001600160401b0381116100cf576101c5906004369181350101613f30565b6060820152608460043501356001600160401b0381116100cf576101f0906004369181350101613f30565b608082015260a460043501356001600160401b0381116100cf5761021b906004369181350101613f30565b60a082015260c460043501356001600160401b0381116100cf57610246906004369181350101613f30565b60c082015260e460043501356001600160401b0381116100cf57610271906004369181350101613f30565b60e082015261010460043501356001600160401b0381116100cf5761029d906004369181350101613f30565b6101008201526001600160401b036101246004350135116100cf576102cd36600480356101248101350101613f30565b6101208201526001600160401b036101446004350135116100cf576102fd36600480356101448101350101613f30565b6101408201526001600160401b036101646004350135116100cf5761032d36600480356101648101350101613f30565b6101608201526001600160401b036101846004350135116100cf5761035d36600480356101848101350101613f30565b6101808201526001600160401b036101a46004350135116100cf5761038d36600480356101a48101350101613f30565b6101a08201526001600160401b036101c46004350135116100cf576103bd36600480356101c48101350101613f30565b6101c08201526001600160401b036101e46004350135116100cf576103ed36600480356101e48101350101613f30565b6101e08201526001600160401b036102046004350135116100cf5761041d36600480356102048101350101613f30565b6102008201526001600160401b036102246004350135116100cf5761044d36600480356102248101350101613f30565b6102208201526001600160401b036102446004350135116100cf5761047d36600480356102448101350101613f30565b6102408201526001600160401b036102646004350135116100cf576104ad36600480356102648101350101613f30565b6102608201526001600160401b036102846004350135116100cf576104dd36600480356102848101350101613f30565b6102808201526001600160401b036102a46004350135116100cf5761050d36600480356102a48101350101613f30565b6102a08201526001600160401b036102c46004350135116100cf5761053d36600480356102c48101350101613f30565b6102c08201526001600160401b036102e46004350135116100cf5761056d36600480356102e48101350101613f30565b6102e08201526001600160401b036103046004350135116100cf5761059d36600480356103048101350101613f30565b6103008201526001600160401b036103246004350135116100cf576105cd36600480356103248101350101613f30565b6103208201526001600160401b036103446004350135116100cf576105fd36600480356103448101350101613f30565b6103408201526001600160401b036103646004350135116100cf5761062d36600480356103648101350101613f30565b6103608201526001600160401b036103846004350135116100cf5761065d36600480356103848101350101613f30565b6103808201526001600160401b036103a46004350135116100cf5761068d36600480356103a48101350101613f30565b6103a08201526001600160401b036103c46004350135116100cf576106bd36600480356103c48101350101613f30565b6103c08201526001600160401b036103e46004350135116100cf576106ed36600480356103e48101350101613f30565b6103e08201526001600160401b036104046004350135116100cf5761071d36600480356104048101350101613f30565b6104008201526001600160401b036104246004350135116100cf5761074d36600480356104248101350101613f30565b6104208201526001600160401b036104446004350135116100cf5761077d36600480356104448101350101613f30565b6104408201526001600160401b036104646004350135116100cf576107ad36600480356104648101350101613f30565b6104608201526001600160401b036104846004350135116100cf576107dd36600480356104848101350101613f30565b6104808201526001600160401b036104a46004350135116100cf5761080d36600480356104a48101350101613f30565b6104a08201526001600160401b036104c46004350135116100cf5761083d36600480356104c48101350101613f30565b6104c0820152805190336000526003602052604060002082516001600160401b0381116119545761086e8254613e2f565b601f8111613459575b506020601f82116001146133f157819293946000926133e6575b50508160011b916000199060031b1c19161790555b602081015190336000526003602052600160406000200182516001600160401b038111611954576108d78254613e2f565b601f81116133a2575b506020601f821160011461333a578192939460009261332f575b50508160011b916000199060031b1c19161790555b604081015190336000526003602052600260406000200182516001600160401b038111611954576109408254613e2f565b601f81116132eb575b506020601f82116001146132835781929394600092613278575b50508160011b916000199060031b1c19161790555b606081015190336000526003602052600360406000200182516001600160401b038111611954576109a98254613e2f565b601f8111613234575b506020601f82116001146131cc57819293946000926131c1575b50508160011b916000199060031b1c19161790555b608081015190336000526003602052600460406000200182516001600160401b03811161195457610a128254613e2f565b601f811161317d575b506020601f8211600114613115578192939460009261310a575b50508160011b916000199060031b1c19161790555b60a081015190336000526003602052600560406000200182516001600160401b03811161195457610a7b8254613e2f565b601f81116130c6575b506020601f821160011461305e5781929394600092613053575b50508160011b916000199060031b1c19161790555b60c081015190336000526003602052600660406000200182516001600160401b03811161195457610ae48254613e2f565b601f811161300f575b506020601f8211600114612fa75781929394600092612f9c575b50508160011b916000199060031b1c19161790555b60e081015190336000526003602052600760406000200182516001600160401b03811161195457610b4d8254613e2f565b601f8111612f58575b506020601f8211600114612ef05781929394600092612ee5575b50508160011b916000199060031b1c19161790555b61010081015190336000526003602052600860406000200182516001600160401b03811161195457610bb78254613e2f565b601f8111612ea1575b506020601f8211600114612e395781929394600092612e2e575b50508160011b916000199060031b1c19161790555b61012081015190336000526003602052600960406000200182516001600160401b03811161195457610c218254613e2f565b601f8111612dea575b506020601f8211600114612d825781929394600092612d77575b50508160011b916000199060031b1c19161790555b61014081015190336000526003602052600a60406000200182516001600160401b03811161195457610c8b8254613e2f565b601f8111612d33575b506020601f8211600114612ccb5781929394600092612cc0575b50508160011b916000199060031b1c19161790555b61016081015190336000526003602052600b60406000200182516001600160401b03811161195457610cf58254613e2f565b601f8111612c7c575b506020601f8211600114612c145781929394600092612c09575b50508160011b916000199060031b1c19161790555b61018081015190336000526003602052600c60406000200182516001600160401b03811161195457610d5f8254613e2f565b601f8111612bc5575b506020601f8211600114612b5d5781929394600092612b52575b50508160011b916000199060031b1c19161790555b6101a081015190336000526003602052600d60406000200182516001600160401b03811161195457610dc98254613e2f565b601f8111612b0e575b506020601f8211600114612aa65781929394600092612a9b575b50508160011b916000199060031b1c19161790555b6101c081015190336000526003602052600e60406000200182516001600160401b03811161195457610e338254613e2f565b601f8111612a57575b506020601f82116001146129ef57819293946000926129e4575b50508160011b916000199060031b1c19161790555b6101e081015190336000526003602052600f60406000200182516001600160401b03811161195457610e9d8254613e2f565b601f81116129a0575b506020601f8211600114612938578192939460009261292d575b50508160011b916000199060031b1c19161790555b61020081015190336000526003602052601060406000200182516001600160401b03811161195457610f078254613e2f565b601f81116128e9575b506020601f82116001146128815781929394600092612876575b50508160011b916000199060031b1c19161790555b61022081015190336000526003602052601160406000200182516001600160401b03811161195457610f718254613e2f565b601f8111612832575b506020601f82116001146127ca57819293946000926127bf575b50508160011b916000199060031b1c19161790555b61024081015190336000526003602052601260406000200182516001600160401b03811161195457610fdb8254613e2f565b601f811161277b575b506020601f82116001146127135781929394600092612708575b50508160011b916000199060031b1c19161790555b61026081015190336000526003602052601360406000200182516001600160401b038111611954576110458254613e2f565b601f81116126c4575b506020601f821160011461265c5781929394600092612651575b50508160011b916000199060031b1c19161790555b61028081015190336000526003602052601460406000200182516001600160401b038111611954576110af8254613e2f565b601f811161260d575b506020601f82116001146125a5578192939460009261259a575b50508160011b916000199060031b1c19161790555b6102a081015190336000526003602052601560406000200182516001600160401b038111611954576111198254613e2f565b601f8111612556575b506020601f82116001146124ee57819293946000926124e3575b50508160011b916000199060031b1c19161790555b6102c081015190336000526003602052601660406000200182516001600160401b038111611954576111838254613e2f565b601f811161249f575b506020601f8211600114612437578192939460009261242c575b50508160011b916000199060031b1c19161790555b6102e081015190336000526003602052601760406000200182516001600160401b038111611954576111ed8254613e2f565b601f81116123e8575b506020601f82116001146123805781929394600092612375575b50508160011b916000199060031b1c19161790555b61030081015190336000526003602052601860406000200182516001600160401b038111611954576112578254613e2f565b601f8111612331575b506020601f82116001146122c957819293946000926122be575b50508160011b916000199060031b1c19161790555b61034081015190336000526003602052601a60406000200182516001600160401b038111611954576112c18254613e2f565b601f811161227a575b506020601f82116001146122125781929394600092612207575b50508160011b916000199060031b1c19161790555b61032081015190336000526003602052601960406000200182516001600160401b0381116119545761132b8254613e2f565b601f81116121c3575b506020601f821160011461215b5781929394600092612150575b50508160011b916000199060031b1c19161790555b61036081015190336000526003602052601b60406000200182516001600160401b038111611954576113958254613e2f565b601f811161210c575b506020601f82116001146120a45781929394600092612099575b50508160011b916000199060031b1c19161790555b6103a081015190336000526003602052601d60406000200182516001600160401b038111611954576113ff8254613e2f565b601f8111612055575b506020601f8211600114611fed5781929394600092611fe2575b50508160011b916000199060031b1c19161790555b61038081015190336000526003602052601c60406000200182516001600160401b038111611954576114698254613e2f565b601f8111611f9e575b506020601f8211600114611f365781929394600092611f2b575b50508160011b916000199060031b1c19161790555b6103c081015190336000526003602052601e60406000200182516001600160401b038111611954576114d38254613e2f565b601f8111611ee7575b506020601f8211600114611e7f5781929394600092611e74575b50508160011b916000199060031b1c19161790555b61040081015190336000526003602052602060406000200182516001600160401b0381116119545761153d8254613e2f565b601f8111611e30575b506020601f8211600114611dc85781929394600092611dbd575b50508160011b916000199060031b1c19161790555b6103e081015190336000526003602052601f60406000200182516001600160401b038111611954576115a78254613e2f565b601f8111611d79575b506020601f8211600114611d115781929394600092611d06575b50508160011b916000199060031b1c19161790555b61042081015190336000526003602052602160406000200182516001600160401b038111611954576116118254613e2f565b601f8111611cc2575b506020601f8211600114611c5a5781929394600092611c4f575b50508160011b916000199060031b1c19161790555b61046081015190336000526003602052602360406000200182516001600160401b0381116119545761167b8254613e2f565b601f8111611c0b575b506020601f8211600114611ba35781929394600092611b98575b50508160011b916000199060031b1c19161790555b61044081015190336000526003602052602260406000200182516001600160401b038111611954576116e58254613e2f565b601f8111611b54575b506020601f8211600114611aec5781929394600092611ae1575b50508160011b916000199060031b1c19161790555b61048081015190336000526003602052602460406000200182516001600160401b0381116119545761174f8254613e2f565b601f8111611a9d575b506020601f8211600114611a355781929394600092611a2a575b50508160011b916000199060031b1c19161790555b6104c08101519033600052600360205260266040600020018251926001600160401b038411611954576117ba8254613e2f565b601f81116119e2575b50602090601f8511600114611975576104a094916000918361196a575b50508160011b916000199060031b1c19161790555b0151336000526003602052602560406000200181516001600160401b038111611954576118228254613e2f565b601f811161190c575b50602092601f82116001146118a8579281929360009261189d575b50508160011b916000199060031b1c19161790555b336000526001602052604060002060ff1981541690557fd05e9f060c4d63fdf1ea5b7d706724b60537e22d729335c17da320380a72c7266020604051338152a1005b015190508380611846565b601f198216938360005260206000209160005b8681106118f457508360019596106118db575b505050811b01905561185b565b015160001960f88460031b161c191690558380806118ce565b919260206001819286850151815501940192016118bb565b826000526020600020601f830160051c8101916020841061194a575b601f0160051c01905b81811061193e575061182b565b60008155600101611931565b9091508190611928565b634e487b7160e01b600052604160045260246000fd5b0151905085806117e0565b908260005260206000209160005b601f19871681106119ca57509185916001936104a097601f198116106119b1575b505050811b0190556117f5565b015160001960f88460031b161c191690558580806119a4565b91926020600181928685015181550194019201611983565b826000526020600020601f860160051c81019160208710611a20575b601f0160051c01905b818110611a1457506117c3565b60008155600101611a07565b90915081906119fe565b015190508480611772565b8260005260206000209060005b601f1984168110611a855750600193949583601f19811610611a6c575b505050811b019055611787565b015160001960f88460031b161c19169055848080611a5f565b9091602060018192858a015181550193019101611a42565b826000526020600020601f830160051c810160208410611ada575b601f830160051c82018110611ace575050611758565b60008155600101611ab8565b5080611ab8565b015190508480611708565b8260005260206000209060005b601f1984168110611b3c5750600193949583601f19811610611b23575b505050811b01905561171d565b015160001960f88460031b161c19169055848080611b16565b9091602060018192858a015181550193019101611af9565b826000526020600020601f830160051c810160208410611b91575b601f830160051c82018110611b855750506116ee565b60008155600101611b6f565b5080611b6f565b01519050848061169e565b8260005260206000209060005b601f1984168110611bf35750600193949583601f19811610611bda575b505050811b0190556116b3565b015160001960f88460031b161c19169055848080611bcd565b9091602060018192858a015181550193019101611bb0565b826000526020600020601f830160051c810160208410611c48575b601f830160051c82018110611c3c575050611684565b60008155600101611c26565b5080611c26565b015190508480611634565b8260005260206000209060005b601f1984168110611caa5750600193949583601f19811610611c91575b505050811b019055611649565b015160001960f88460031b161c19169055848080611c84565b9091602060018192858a015181550193019101611c67565b826000526020600020601f830160051c810160208410611cff575b601f830160051c82018110611cf357505061161a565b60008155600101611cdd565b5080611cdd565b0151905084806115ca565b8260005260206000209060005b601f1984168110611d615750600193949583601f19811610611d48575b505050811b0190556115df565b015160001960f88460031b161c19169055848080611d3b565b9091602060018192858a015181550193019101611d1e565b826000526020600020601f830160051c810160208410611db6575b601f830160051c82018110611daa5750506115b0565b60008155600101611d94565b5080611d94565b015190508480611560565b8260005260206000209060005b601f1984168110611e185750600193949583601f19811610611dff575b505050811b019055611575565b015160001960f88460031b161c19169055848080611df2565b9091602060018192858a015181550193019101611dd5565b826000526020600020601f830160051c810160208410611e6d575b601f830160051c82018110611e61575050611546565b60008155600101611e4b565b5080611e4b565b0151905084806114f6565b8260005260206000209060005b601f1984168110611ecf5750600193949583601f19811610611eb6575b505050811b01905561150b565b015160001960f88460031b161c19169055848080611ea9565b9091602060018192858a015181550193019101611e8c565b826000526020600020601f830160051c810160208410611f24575b601f830160051c82018110611f185750506114dc565b60008155600101611f02565b5080611f02565b01519050848061148c565b8260005260206000209060005b601f1984168110611f865750600193949583601f19811610611f6d575b505050811b0190556114a1565b015160001960f88460031b161c19169055848080611f60565b9091602060018192858a015181550193019101611f43565b826000526020600020601f830160051c810160208410611fdb575b601f830160051c82018110611fcf575050611472565b60008155600101611fb9565b5080611fb9565b015190508480611422565b8260005260206000209060005b601f198416811061203d5750600193949583601f19811610612024575b505050811b019055611437565b015160001960f88460031b161c19169055848080612017565b9091602060018192858a015181550193019101611ffa565b826000526020600020601f830160051c810160208410612092575b601f830160051c82018110612086575050611408565b60008155600101612070565b5080612070565b0151905084806113b8565b8260005260206000209060005b601f19841681106120f45750600193949583601f198116106120db575b505050811b0190556113cd565b015160001960f88460031b161c191690558480806120ce565b9091602060018192858a0151815501930191016120b1565b826000526020600020601f830160051c810160208410612149575b601f830160051c8201811061213d57505061139e565b60008155600101612127565b5080612127565b01519050848061134e565b8260005260206000209060005b601f19841681106121ab5750600193949583601f19811610612192575b505050811b019055611363565b015160001960f88460031b161c19169055848080612185565b9091602060018192858a015181550193019101612168565b826000526020600020601f830160051c810160208410612200575b601f830160051c820181106121f4575050611334565b600081556001016121de565b50806121de565b0151905084806112e4565b8260005260206000209060005b601f19841681106122625750600193949583601f19811610612249575b505050811b0190556112f9565b015160001960f88460031b161c1916905584808061223c565b9091602060018192858a01518155019301910161221f565b826000526020600020601f830160051c8101602084106122b7575b601f830160051c820181106122ab5750506112ca565b60008155600101612295565b5080612295565b01519050848061127a565b8260005260206000209060005b601f19841681106123195750600193949583601f19811610612300575b505050811b01905561128f565b015160001960f88460031b161c191690558480806122f3565b9091602060018192858a0151815501930191016122d6565b826000526020600020601f830160051c81016020841061236e575b601f830160051c82018110612362575050611260565b6000815560010161234c565b508061234c565b015190508480611210565b8260005260206000209060005b601f19841681106123d05750600193949583601f198116106123b7575b505050811b019055611225565b015160001960f88460031b161c191690558480806123aa565b9091602060018192858a01518155019301910161238d565b826000526020600020601f830160051c810160208410612425575b601f830160051c820181106124195750506111f6565b60008155600101612403565b5080612403565b0151905084806111a6565b8260005260206000209060005b601f19841681106124875750600193949583601f1981161061246e575b505050811b0190556111bb565b015160001960f88460031b161c19169055848080612461565b9091602060018192858a015181550193019101612444565b826000526020600020601f830160051c8101602084106124dc575b601f830160051c820181106124d057505061118c565b600081556001016124ba565b50806124ba565b01519050848061113c565b8260005260206000209060005b601f198416811061253e5750600193949583601f19811610612525575b505050811b019055611151565b015160001960f88460031b161c19169055848080612518565b9091602060018192858a0151815501930191016124fb565b826000526020600020601f830160051c810160208410612593575b601f830160051c82018110612587575050611122565b60008155600101612571565b5080612571565b0151905084806110d2565b8260005260206000209060005b601f19841681106125f55750600193949583601f198116106125dc575b505050811b0190556110e7565b015160001960f88460031b161c191690558480806125cf565b9091602060018192858a0151815501930191016125b2565b826000526020600020601f830160051c81016020841061264a575b601f830160051c8201811061263e5750506110b8565b60008155600101612628565b5080612628565b015190508480611068565b8260005260206000209060005b601f19841681106126ac5750600193949583601f19811610612693575b505050811b01905561107d565b015160001960f88460031b161c19169055848080612686565b9091602060018192858a015181550193019101612669565b826000526020600020601f830160051c810160208410612701575b601f830160051c820181106126f557505061104e565b600081556001016126df565b50806126df565b015190508480610ffe565b8260005260206000209060005b601f19841681106127635750600193949583601f1981161061274a575b505050811b019055611013565b015160001960f88460031b161c1916905584808061273d565b9091602060018192858a015181550193019101612720565b826000526020600020601f830160051c8101602084106127b8575b601f830160051c820181106127ac575050610fe4565b60008155600101612796565b5080612796565b015190508480610f94565b8260005260206000209060005b601f198416811061281a5750600193949583601f19811610612801575b505050811b019055610fa9565b015160001960f88460031b161c191690558480806127f4565b9091602060018192858a0151815501930191016127d7565b826000526020600020601f830160051c81016020841061286f575b601f830160051c82018110612863575050610f7a565b6000815560010161284d565b508061284d565b015190508480610f2a565b8260005260206000209060005b601f19841681106128d15750600193949583601f198116106128b8575b505050811b019055610f3f565b015160001960f88460031b161c191690558480806128ab565b9091602060018192858a01518155019301910161288e565b826000526020600020601f830160051c810160208410612926575b601f830160051c8201811061291a575050610f10565b60008155600101612904565b5080612904565b015190508480610ec0565b8260005260206000209060005b601f19841681106129885750600193949583601f1981161061296f575b505050811b019055610ed5565b015160001960f88460031b161c19169055848080612962565b9091602060018192858a015181550193019101612945565b826000526020600020601f830160051c8101602084106129dd575b601f830160051c820181106129d1575050610ea6565b600081556001016129bb565b50806129bb565b015190508480610e56565b8260005260206000209060005b601f1984168110612a3f5750600193949583601f19811610612a26575b505050811b019055610e6b565b015160001960f88460031b161c19169055848080612a19565b9091602060018192858a0151815501930191016129fc565b826000526020600020601f830160051c810160208410612a94575b601f830160051c82018110612a88575050610e3c565b60008155600101612a72565b5080612a72565b015190508480610dec565b8260005260206000209060005b601f1984168110612af65750600193949583601f19811610612add575b505050811b019055610e01565b015160001960f88460031b161c19169055848080612ad0565b9091602060018192858a015181550193019101612ab3565b826000526020600020601f830160051c810160208410612b4b575b601f830160051c82018110612b3f575050610dd2565b60008155600101612b29565b5080612b29565b015190508480610d82565b8260005260206000209060005b601f1984168110612bad5750600193949583601f19811610612b94575b505050811b019055610d97565b015160001960f88460031b161c19169055848080612b87565b9091602060018192858a015181550193019101612b6a565b826000526020600020601f830160051c810160208410612c02575b601f830160051c82018110612bf6575050610d68565b60008155600101612be0565b5080612be0565b015190508480610d18565b8260005260206000209060005b601f1984168110612c645750600193949583601f19811610612c4b575b505050811b019055610d2d565b015160001960f88460031b161c19169055848080612c3e565b9091602060018192858a015181550193019101612c21565b826000526020600020601f830160051c810160208410612cb9575b601f830160051c82018110612cad575050610cfe565b60008155600101612c97565b5080612c97565b015190508480610cae565b8260005260206000209060005b601f1984168110612d1b5750600193949583601f19811610612d02575b505050811b019055610cc3565b015160001960f88460031b161c19169055848080612cf5565b9091602060018192858a015181550193019101612cd8565b826000526020600020601f830160051c810160208410612d70575b601f830160051c82018110612d64575050610c94565b60008155600101612d4e565b5080612d4e565b015190508480610c44565b8260005260206000209060005b601f1984168110612dd25750600193949583601f19811610612db9575b505050811b019055610c59565b015160001960f88460031b161c19169055848080612dac565b9091602060018192858a015181550193019101612d8f565b826000526020600020601f830160051c810160208410612e27575b601f830160051c82018110612e1b575050610c2a565b60008155600101612e05565b5080612e05565b015190508480610bda565b8260005260206000209060005b601f1984168110612e895750600193949583601f19811610612e70575b505050811b019055610bef565b015160001960f88460031b161c19169055848080612e63565b9091602060018192858a015181550193019101612e46565b826000526020600020601f830160051c810160208410612ede575b601f830160051c82018110612ed2575050610bc0565b60008155600101612ebc565b5080612ebc565b015190508480610b70565b8260005260206000209060005b601f1984168110612f405750600193949583601f19811610612f27575b505050811b019055610b85565b015160001960f88460031b161c19169055848080612f1a565b9091602060018192858a015181550193019101612efd565b826000526020600020601f830160051c810160208410612f95575b601f830160051c82018110612f89575050610b56565b60008155600101612f73565b5080612f73565b015190508480610b07565b8260005260206000209060005b601f1984168110612ff75750600193949583601f19811610612fde575b505050811b019055610b1c565b015160001960f88460031b161c19169055848080612fd1565b9091602060018192858a015181550193019101612fb4565b826000526020600020601f830160051c81016020841061304c575b601f830160051c82018110613040575050610aed565b6000815560010161302a565b508061302a565b015190508480610a9e565b8260005260206000209060005b601f19841681106130ae5750600193949583601f19811610613095575b505050811b019055610ab3565b015160001960f88460031b161c19169055848080613088565b9091602060018192858a01518155019301910161306b565b826000526020600020601f830160051c810160208410613103575b601f830160051c820181106130f7575050610a84565b600081556001016130e1565b50806130e1565b015190508480610a35565b8260005260206000209060005b601f19841681106131655750600193949583601f1981161061314c575b505050811b019055610a4a565b015160001960f88460031b161c1916905584808061313f565b9091602060018192858a015181550193019101613122565b826000526020600020601f830160051c8101602084106131ba575b601f830160051c820181106131ae575050610a1b565b60008155600101613198565b5080613198565b0151905084806109cc565b8260005260206000209060005b601f198416811061321c5750600193949583601f19811610613203575b505050811b0190556109e1565b015160001960f88460031b161c191690558480806131f6565b9091602060018192858a0151815501930191016131d9565b826000526020600020601f830160051c810160208410613271575b601f830160051c820181106132655750506109b2565b6000815560010161324f565b508061324f565b015190508480610963565b8260005260206000209060005b601f19841681106132d35750600193949583601f198116106132ba575b505050811b019055610978565b015160001960f88460031b161c191690558480806132ad565b9091602060018192858a015181550193019101613290565b826000526020600020601f830160051c810160208410613328575b601f830160051c8201811061331c575050610949565b60008155600101613306565b5080613306565b0151905084806108fa565b8260005260206000209060005b601f198416811061338a5750600193949583601f19811610613371575b505050811b01905561090f565b015160001960f88460031b161c19169055848080613364565b9091602060018192858a015181550193019101613347565b826000526020600020601f830160051c8101602084106133df575b601f830160051c820181106133d35750506108e0565b600081556001016133bd565b50806133bd565b015190508480610891565b8260005260206000209060005b601f19841681106134415750600193949583601f19811610613428575b505050811b0190556108a6565b015160001960f88460031b161c1916905584808061341b565b9091602060018192858a0151815501930191016133fe565b826000526020600020601f830160051c810160208410613496575b601f830160051c8201811061348a575050610877565b60008155600101613474565b5080613474565b346100cf5760203660031901126100cf576004356001600160a01b038116908190036100cf57600052600360205260406000208060e0526134dd90613e8a565b6101205260e0516001016134f090613e8a565b6103a05260e05160020161350390613e8a565b6103005260e05160030161351690613e8a565b6102e05260e05160040161352990613e8a565b6103e05260e05160050161353c90613e8a565b60e05160060161354b90613e8a565b60e05160070161355a90613e8a565b60e05160080161356990613e8a565b60e05160090161357890613e8a565b60e051600a0161358790613e8a565b60e051600b0161359690613e8a565b9160e051600c016135a690613e8a565b9360e051600d016135b690613e8a565b9560e051600e016135c690613e8a565b9760e051600f016135d690613e8a565b9960e0516010016135e690613e8a565b60805260e0516011016135f890613e8a565b6103205260e05160120161360b90613e8a565b6102005260e05160130161361e90613e8a565b6101a05260e05160140161363190613e8a565b6101c05260e05160150161364490613e8a565b6101005260e05160160161365790613e8a565b6102205260e05160170161366a90613e8a565b6102a05260e05160180161367d90613e8a565b6104005260e05160190161369090613e8a565b6103c05260e051601a016136a390613e8a565b6102805260e051601b016136b690613e8a565b6103405260e051601c016136c990613e8a565b6101605260e051601d016136dc90613e8a565b6101405260e051601e016136ef90613e8a565b6103605260e051601f0161370290613e8a565b6102605260e05160200161371590613e8a565b6104205260e05160210161372890613e8a565b6102405260e05160220161373b90613e8a565b6101805260e05160230161374e90613e8a565b6101e05260e05160240161376190613e8a565b60a05260e05160250161377390613e8a565b6103805260e05160260161378690613e8a565b60c052604051806102c0526104e08091526102c0510161012051906137aa91613d8d565b6102c05180820390602001526103a051906137c491613d8d565b6102c051808203906040015261030051906137de91613d8d565b6102c05180820390606001526102e051906137f891613d8d565b6102c05180820390608001526103e0519061381291613d8d565b6102c0518082039060a0015261382791613d8d565b6102c0518082039060c0015261383c91613d8d565b6102c0518082039060e0015261385191613d8d565b6102c05180820390610100015261386791613d8d565b6102c05180820390610120015261387d91613d8d565b6102c05180820390610140015261389391613d8d565b6102c0518082039061016001526138a991613d8d565b6102c0518082039061018001526138bf91613d8d565b6102c051808203906101a001526138d591613d8d565b6102c051808203906101c001526138eb91613d8d565b6102c051808203906101e0015261390191613d8d565b6102c0518082039061020001526080519061391b91613d8d565b6102c051808203906102200152610320519061393691613d8d565b6102c051808203906102400152610200519061395191613d8d565b6102c0518082039061026001526101a0519061396c91613d8d565b6102c0518082039061028001526101c0519061398791613d8d565b6102c051808203906102a0015261010051906139a291613d8d565b6102c051808203906102c0015261022051906139bd91613d8d565b6102c051808203906102e001526102a051906139d891613d8d565b6102c05180820390610300015261040051906139f391613d8d565b6102c0518082039061032001526103c05190613a0e91613d8d565b6102c0518082039061034001526102805190613a2991613d8d565b6102c0518082039061036001526103405190613a4491613d8d565b6102c0518082039061038001526101605190613a5f91613d8d565b6102c051808203906103a001526101405190613a7a91613d8d565b6102c051808203906103c001526103605190613a9591613d8d565b6102c051808203906103e001526102605190613ab091613d8d565b6102c0518082039061040001526104205190613acb91613d8d565b6102c0518082039061042001526102405190613ae691613d8d565b6102c0518082039061044001526101805190613b0191613d8d565b6102c0518082039061046001526101e05190613b1c91613d8d565b6102c05180820390610480015260a05190613b3691613d8d565b6102c051808203906104a001526103805190613b5191613d8d565b6102c051808203906104c001526102c0519060c05190613b7091613d8d565b036102c051f35b346100cf5760203660031901126100cf576004356001600160a01b038116908190036100cf576020817f47be077097410b560f37e1246fc66026ea96c97005a0aee44ad2b86ea262d8e39260005260008252604060002060ff199060018282541617905533600052600183526040600020908154169055604051908152a1005b346100cf5760003660031901126100cf57613c20613c1433614318565b60405191829182613dcd565b0390f35b346100cf5760203660031901126100cf576004356001600160a01b038116908190036100cf576020817fb572534a60770fffddac514e6f51f76960333bf219fdec57566aa50912fdf49c9260005260008252604060002060ff199081815416905533600052600183526040600020908154169055604051908152a1005b346100cf5760203660031901126100cf576004356001600160a01b03811681036100cf57613c14613c2091614318565b346100cf5760203660031901126100cf576004356001600160a01b038116908190036100cf576000526001602052602060ff604060002054166040519015158152f35b346100cf5760203660031901126100cf576004356001600160a01b03818116918290036100cf576020916000526002825260406000205416604051908152f35b346100cf5760203660031901126100cf576004356001600160a01b03811681036100cf57613d83602091613f86565b6040519015158152f35b919082519283825260005b848110613db9575050826000602080949584010152601f8019910116010190565b602081830181015184830182015201613d98565b602080820190808352835180925260408301928160408460051b8301019501936000915b848310613e015750505050505090565b9091929394958480613e1f600193603f198682030187528a51613d8d565b9801930193019194939290613df1565b90600182811c92168015613e5f575b6020831014613e4957565b634e487b7160e01b600052602260045260246000fd5b91607f1691613e3e565b90601f801991011681019081106001600160401b0382111761195457604052565b9060405191826000825492613e9e84613e2f565b908184526001948581169081600014613f0d5750600114613eca575b5050613ec892500383613e69565b565b9093915060005260209081600020936000915b818310613ef5575050613ec893508201013880613eba565b85548884018501529485019487945091830191613edd565b915050613ec894506020925060ff191682840152151560051b8201013880613eba565b81601f820112156100cf578035906001600160401b0382116119545760405192613f64601f8401601f191660200185613e69565b828452602083830101116100cf57816000926020809301838601378301015290565b60018060a01b038091166000918183526020916002835260409182852054163314600014613fec578382917fc0f3a67aa9ba061ea31645e29ee6400403de6e06f65b191b6b891dffc8c4882d9552600184522060ff1981541690555160018152a1600190565b907fb58f6102f789cf25950e63d8eecc8d0806c1b52fc17eed084004ad4cd39f7beb81849360017fc0f3a67aa9ba061ea31645e29ee6400403de6e06f65b191b6b891dffc8c4882d9652818720600160ff1982541617905560028552818720336bffffffffffffffffffffffff60a01b82541617905581519081523385820152a151838152a190565b8051156140825760200190565b634e487b7160e01b600052603260045260246000fd5b8051600110156140825760400190565b8051600210156140825760600190565b8051600310156140825760800190565b8051600410156140825760a00190565b8051600510156140825760c00190565b8051600610156140825760e00190565b805160071015614082576101000190565b805160081015614082576101200190565b805160091015614082576101400190565b8051600a1015614082576101600190565b8051600b1015614082576101800190565b8051600c1015614082576101a00190565b8051600d1015614082576101c00190565b8051600e1015614082576101e00190565b8051600f1015614082576102000190565b805160101015614082576102200190565b805160111015614082576102400190565b805160121015614082576102600190565b805160131015614082576102800190565b805160141015614082576102a00190565b805160151015614082576102c00190565b805160161015614082576102e00190565b805160171015614082576103000190565b805160181015614082576103200190565b805160191015614082576103400190565b8051601a1015614082576103600190565b8051601b1015614082576103800190565b8051601c1015614082576103a00190565b8051601d1015614082576103c00190565b8051601e1015614082576103e00190565b8051601f1015614082576104000190565b805160201015614082576104200190565b805160211015614082576104400190565b805160221015614082576104600190565b805160231015614082576104800190565b805160241015614082576104a00190565b805160251015614082576104c00190565b805160261015614082576104e00190565b60409081519161050083018381106001600160401b038211176119545781526027835260005b6104e08110614a25575060018060a01b03809216918260005260039260209380855261436c84600020613e8a565b61437587614075565b5261437f86614075565b508160005280855261439660018560002001613e8a565b61439f87614098565b526143a986614098565b50816000528085526143c060028560002001613e8a565b6143c9876140a8565b526143d3866140a8565b50816000528085526143e9818560002001613e8a565b6143f2876140b8565b526143fc866140b8565b508160005280855261441360048560002001613e8a565b61441c876140c8565b52614426866140c8565b508160005280855261443d60058560002001613e8a565b614446876140d8565b52614450866140d8565b508160005280855261446760068560002001613e8a565b614470876140e8565b5261447a866140e8565b508160005280855261449160078560002001613e8a565b61449a876140f8565b526144a4866140f8565b50816000528085526144bb60088560002001613e8a565b6144c487614109565b526144ce86614109565b50816000528085526144e560098560002001613e8a565b6144ee8761411a565b526144f88661411a565b508160005280855261450f600a8560002001613e8a565b6145188761412b565b526145228661412b565b5081600052808552614539600b8560002001613e8a565b6145428761413c565b5261454c8661413c565b5081600052808552614563600c8560002001613e8a565b61456c8761414d565b526145768661414d565b508160005280855261458d600d8560002001613e8a565b6145968761415e565b526145a08661415e565b50816000528085526145b7600e8560002001613e8a565b6145c08761416f565b526145ca8661416f565b50816000528085526145e1600f8560002001613e8a565b6145ea87614180565b526145f486614180565b508160005280855261460b60108560002001613e8a565b61461487614191565b5261461e86614191565b508160005280855261463560118560002001613e8a565b61463e876141a2565b52614648866141a2565b508160005280855261465f60128560002001613e8a565b614668876141b3565b52614672866141b3565b508160005280855261468960138560002001613e8a565b614692876141c4565b5261469c866141c4565b50816000528085526146b360148560002001613e8a565b6146bc876141d5565b526146c6866141d5565b50816000528085526146dd60158560002001613e8a565b6146e6876141e6565b526146f0866141e6565b508160005280855261470760168560002001613e8a565b614710876141f7565b5261471a866141f7565b508160005280855261473160178560002001613e8a565b61473a87614208565b5261474486614208565b508160005280855261475b60188560002001613e8a565b61476487614219565b5261476e86614219565b508160005280855261478560198560002001613e8a565b61478e8761422a565b526147988661422a565b50816000528085526147af601a8560002001613e8a565b6147b88761423b565b526147c28661423b565b50816000528085526147d9601b8560002001613e8a565b6147e28761424c565b526147ec8661424c565b5081600052808552614803601c8560002001613e8a565b61480c8761425d565b526148168661425d565b508160005280855261482d601d8560002001613e8a565b6148368761426e565b526148408661426e565b5081600052808552614857601e8560002001613e8a565b6148608761427f565b5261486a8661427f565b5081600052808552614881601f8560002001613e8a565b61488a87614290565b5261489486614290565b50816000528085526148aa858560002001613e8a565b6148b3876142a1565b526148bd866142a1565b50816000528085526148d460218560002001613e8a565b6148dd876142b2565b526148e7866142b2565b50816000528085526148fe60228560002001613e8a565b614907876142c3565b52614911866142c3565b508160005280855261492860238560002001613e8a565b614931876142d4565b5261493b866142d4565b508160005280855261495260248560002001613e8a565b61495b876142e5565b52614965866142e5565b508160005280855261497c60258560002001613e8a565b614985876142f6565b5261498f866142f6565b508160005284526149a560268460002001613e8a565b6149ae86614307565b526149b885614307565b50338114614a1e57600052600283528160002054166000526000825260ff816000205416156149e657505090565b60649250519062461bcd60e51b8252600482015260126024820152711058d8d95cdcc81b9bdd08185b1b1bddd95960721b6044820152fd5b5050505090565b80606060208093870101520161433e56fea26469706673582212200ea99bd9cb6236d7a265752220526fda6929d29e7553c8357bd68ca63a0a514b64736f6c63430008110033",
  "linkReferences": {},
  "deployedLinkReferences": {}
}