{
  "_format": "hh-sol-artifact-1",
  "contractName": "KycForm",
  "sourceName": "contracts/KyCForm.sol",
  "abi": [
    {
      "anonymous": false,
      "inputs": [
        {
          "indexed": false,
          "internalType": "address",
          "name": "bank",
          "type": "address"
        }
      ],
      "name": "DataAccessDenied",
      "type": "event"
    },
    {
      "anonymous": false,
      "inputs": [
        {
          "indexed": false,
          "internalType": "address",
          "name": "bank",
          "type": "address"
        }
      ],
      "name": "DataAccessGranted",
      "type": "event"
    },
    {
      "anonymous": false,
      "inputs": [
        {
          "indexed": false,
          "internalType": "address",
          "name": "user",
          "type": "address"
        },
        {
          "indexed": false,
          "internalType": "address",
          "name": "bank",
          "type": "address"
        }
      ],
      "name": "DataAccessRequested",
      "type": "event"
    },
    {
      "anonymous": false,
      "inputs": [
        {
          "indexed": false,
          "internalType": "address",
          "name": "user",
          "type": "address"
        }
      ],
      "name": "FormDataStored",
      "type": "event"
    },
    {
      "anonymous": false,
      "inputs": [
        {
          "indexed": false,
          "internalType": "bool",
          "name": "status",
          "type": "bool"
        }
      ],
      "name": "requested",
      "type": "event"
    },
    {
      "inputs": [
        {
          "internalType": "address",
          "name": "_receiver",
          "type": "address"
        }
      ],
      "name": "allowAccess",
      "outputs": [],
      "stateMutability": "nonpayable",
      "type": "function"
    },
    {
      "inputs": [
        {
          "internalType": "uint256",
          "name": "",
          "type": "uint256"
        }
      ],
      "name": "bankAddress",
      "outputs": [
        {
          "internalType": "address",
          "name": "",
          "type": "address"
        }
      ],
      "stateMutability": "view",
      "type": "function"
    },
    {
      "inputs": [
        {
          "internalType": "address",
          "name": "_user",
          "type": "address"
        }
      ],
      "name": "getFormData",
      "outputs": [
        {
          "internalType": "string[]",
          "name": "",
          "type": "string[]"
        }
      ],
      "stateMutability": "view",
      "type": "function"
    },
    {
      "inputs": [],
      "name": "getIsAsking",
      "outputs": [
        {
          "internalType": "bool",
          "name": "",
          "type": "bool"
        },
        {
          "internalType": "address[]",
          "name": "",
          "type": "address[]"
        }
      ],
      "stateMutability": "view",
      "type": "function"
    },
    {
      "inputs": [],
      "name": "getOwnData",
      "outputs": [
        {
          "internalType": "string[]",
          "name": "",
          "type": "string[]"
        }
      ],
      "stateMutability": "view",
      "type": "function"
    },
    {
      "inputs": [
        {
          "internalType": "address",
          "name": "",
          "type": "address"
        }
      ],
      "name": "isAsking",
      "outputs": [
        {
          "internalType": "bool",
          "name": "",
          "type": "bool"
        }
      ],
      "stateMutability": "view",
      "type": "function"
    },
    {
      "inputs": [
        {
          "internalType": "address",
          "name": "_userAddress",
          "type": "address"
        }
      ],
      "name": "recentRequestStatus",
      "outputs": [
        {
          "internalType": "string",
          "name": "",
          "type": "string"
        }
      ],
      "stateMutability": "view",
      "type": "function"
    },
    {
      "inputs": [
        {
          "internalType": "address",
          "name": "value",
          "type": "address"
        }
      ],
      "name": "removeValue",
      "outputs": [],
      "stateMutability": "nonpayable",
      "type": "function"
    },
    {
      "inputs": [
        {
          "internalType": "uint256",
          "name": "",
          "type": "uint256"
        }
      ],
      "name": "requestAskingBankAddress",
      "outputs": [
        {
          "internalType": "address",
          "name": "",
          "type": "address"
        }
      ],
      "stateMutability": "view",
      "type": "function"
    },
    {
      "inputs": [
        {
          "internalType": "address",
          "name": "_userAddress",
          "type": "address"
        }
      ],
      "name": "requestDataAccess",
      "outputs": [
        {
          "internalType": "bool",
          "name": "",
          "type": "bool"
        }
      ],
      "stateMutability": "nonpayable",
      "type": "function"
    },
    {
      "inputs": [
        {
          "internalType": "address",
          "name": "_receiver",
          "type": "address"
        }
      ],
      "name": "revokeAccess",
      "outputs": [],
      "stateMutability": "nonpayable",
      "type": "function"
    },
    {
      "inputs": [
        {
          "components": [
            {
              "internalType": "string",
              "name": "first_name",
              "type": "string"
            },
            {
              "internalType": "string",
              "name": "last_name",
              "type": "string"
            },
            {
              "internalType": "string",
              "name": "middle_name",
              "type": "string"
            },
            {
              "internalType": "string",
              "name": "dob",
              "type": "string"
            },
            {
              "internalType": "string",
              "name": "id_type",
              "type": "string"
            },
            {
              "internalType": "string",
              "name": "id_no",
              "type": "string"
            },
            {
              "internalType": "string",
              "name": "gender",
              "type": "string"
            },
            {
              "internalType": "string",
              "name": "marital_status",
              "type": "string"
            },
            {
              "internalType": "string",
              "name": "caste",
              "type": "string"
            },
            {
              "internalType": "string",
              "name": "religion",
              "type": "string"
            },
            {
              "internalType": "string",
              "name": "profession",
              "type": "string"
            },
            {
              "internalType": "string",
              "name": "phone_number",
              "type": "string"
            },
            {
              "internalType": "string",
              "name": "state",
              "type": "string"
            },
            {
              "internalType": "string",
              "name": "district",
              "type": "string"
            },
            {
              "internalType": "string",
              "name": "local_level",
              "type": "string"
            },
            {
              "internalType": "string",
              "name": "ward_no",
              "type": "string"
            },
            {
              "internalType": "string",
              "name": "village_tole",
              "type": "string"
            },
            {
              "internalType": "string",
              "name": "house_no",
              "type": "string"
            },
            {
              "internalType": "string",
              "name": "temp_state",
              "type": "string"
            },
            {
              "internalType": "string",
              "name": "temp_district",
              "type": "string"
            },
            {
              "internalType": "string",
              "name": "temp_local_level",
              "type": "string"
            },
            {
              "internalType": "string",
              "name": "temp_ward_no",
              "type": "string"
            },
            {
              "internalType": "string",
              "name": "temp_village_tole",
              "type": "string"
            },
            {
              "internalType": "string",
              "name": "temp_house_no",
              "type": "string"
            },
            {
              "internalType": "string",
              "name": "father_first_name",
              "type": "string"
            },
            {
              "internalType": "string",
              "name": "father_middle_name",
              "type": "string"
            },
            {
              "internalType": "string",
              "name": "father_last_name",
              "type": "string"
            },
            {
              "internalType": "string",
              "name": "mother_first_name",
              "type": "string"
            },
            {
              "internalType": "string",
              "name": "mother_middle_name",
              "type": "string"
            },
            {
              "internalType": "string",
              "name": "mother_last_name",
              "type": "string"
            },
            {
              "internalType": "string",
              "name": "spouse_first_name",
              "type": "string"
            },
            {
              "internalType": "string",
              "name": "spouse_middle_name",
              "type": "string"
            },
            {
              "internalType": "string",
              "name": "spouse_last_name",
              "type": "string"
            },
            {
              "internalType": "string",
              "name": "grandfather_first_name",
              "type": "string"
            },
            {
              "internalType": "string",
              "name": "grandfather_middle_name",
              "type": "string"
            },
            {
              "internalType": "string",
              "name": "grandfather_last_name",
              "type": "string"
            },
            {
              "internalType": "string",
              "name": "grandmother_first_name",
              "type": "string"
            },
            {
              "internalType": "string",
              "name": "grandmother_middle_name",
              "type": "string"
            },
            {
              "internalType": "string",
              "name": "grandmother_last_name",
              "type": "string"
            },
            {
              "internalType": "string",
              "name": "status",
              "type": "string"
            }
          ],
          "internalType": "struct KycForm.UserData",
          "name": "_userData",
          "type": "tuple"
        }
      ],
      "name": "storeFormData",
      "outputs": [],
      "stateMutability": "nonpayable",
      "type": "function"
    },
    {
      "inputs": [
        {
          "internalType": "address",
          "name": "",
          "type": "address"
        }
      ],
      "name": "userData",
      "outputs": [
        {
          "internalType": "string",
          "name": "first_name",
          "type": "string"
        },
        {
          "internalType": "string",
          "name": "last_name",
          "type": "string"
        },
        {
          "internalType": "string",
          "name": "middle_name",
          "type": "string"
        },
        {
          "internalType": "string",
          "name": "dob",
          "type": "string"
        },
        {
          "internalType": "string",
          "name": "id_type",
          "type": "string"
        },
        {
          "internalType": "string",
          "name": "id_no",
          "type": "string"
        },
        {
          "internalType": "string",
          "name": "gender",
          "type": "string"
        },
        {
          "internalType": "string",
          "name": "marital_status",
          "type": "string"
        },
        {
          "internalType": "string",
          "name": "caste",
          "type": "string"
        },
        {
          "internalType": "string",
          "name": "religion",
          "type": "string"
        },
        {
          "internalType": "string",
          "name": "profession",
          "type": "string"
        },
        {
          "internalType": "string",
          "name": "phone_number",
          "type": "string"
        },
        {
          "internalType": "string",
          "name": "state",
          "type": "string"
        },
        {
          "internalType": "string",
          "name": "district",
          "type": "string"
        },
        {
          "internalType": "string",
          "name": "local_level",
          "type": "string"
        },
        {
          "internalType": "string",
          "name": "ward_no",
          "type": "string"
        },
        {
          "internalType": "string",
          "name": "village_tole",
          "type": "string"
        },
        {
          "internalType": "string",
          "name": "house_no",
          "type": "string"
        },
        {
          "internalType": "string",
          "name": "temp_state",
          "type": "string"
        },
        {
          "internalType": "string",
          "name": "temp_district",
          "type": "string"
        },
        {
          "internalType": "string",
          "name": "temp_local_level",
          "type": "string"
        },
        {
          "internalType": "string",
          "name": "temp_ward_no",
          "type": "string"
        },
        {
          "internalType": "string",
          "name": "temp_village_tole",
          "type": "string"
        },
        {
          "internalType": "string",
          "name": "temp_house_no",
          "type": "string"
        },
        {
          "internalType": "string",
          "name": "father_first_name",
          "type": "string"
        },
        {
          "internalType": "string",
          "name": "father_middle_name",
          "type": "string"
        },
        {
          "internalType": "string",
          "name": "father_last_name",
          "type": "string"
        },
        {
          "internalType": "string",
          "name": "mother_first_name",
          "type": "string"
        },
        {
          "internalType": "string",
          "name": "mother_middle_name",
          "type": "string"
        },
        {
          "internalType": "string",
          "name": "mother_last_name",
          "type": "string"
        },
        {
          "internalType": "string",
          "name": "spouse_first_name",
          "type": "string"
        },
        {
          "internalType": "string",
          "name": "spouse_middle_name",
          "type": "string"
        },
        {
          "internalType": "string",
          "name": "spouse_last_name",
          "type": "string"
        },
        {
          "internalType": "string",
          "name": "grandfather_first_name",
          "type": "string"
        },
        {
          "internalType": "string",
          "name": "grandfather_middle_name",
          "type": "string"
        },
        {
          "internalType": "string",
          "name": "grandfather_last_name",
          "type": "string"
        },
        {
          "internalType": "string",
          "name": "grandmother_first_name",
          "type": "string"
        },
        {
          "internalType": "string",
          "name": "grandmother_middle_name",
          "type": "string"
        },
        {
          "internalType": "string",
          "name": "grandmother_last_name",
          "type": "string"
        },
        {
          "internalType": "string",
          "name": "status",
          "type": "string"
        }
      ],
      "stateMutability": "view",
      "type": "function"
    }
  ],
  "bytecode": "0x6080806040523461001657614621908161001c8239f35b600080fdfe610460604052600436101561001357600080fd5b60003560e01c8063130abf4f1461367a578063193bee7e14610cf2578063236e350914610c9757806326fd4b4514610c5457806340f6fd1414610bf95780634c72d94814610bc957806385e6853114610a8c578063bf806d3e14610a63578063c4a85bc114610953578063c891091314610225578063d1e5e43414610142578063e706c693146100e05763ef153b6f146100ac57600080fd5b346100db5760203660031901126100db576004356001600160a01b03811681036100db576100d990613b93565b005b600080fd5b346100db5760203660031901126100db576004356001600160a01b038116908190036100db57600052600060205260406000203360005260205261013e61012a6040600020613853565b604051918291602083526020830190613777565b0390f35b346100db5760003660031901126100db573360005260206002815260ff60406000205416906040518091806004549283815201809260046000527f8a35acfbc15ff81a39ae7d344fd709f28e8600b4aa8c65c6b64bfe7fe36bd19b9060005b81811061020857505050836101b79103846136b3565b6040519384936040850191151585526040838601525180915260608401929160005b8281106101e857505050500390f35b83516001600160a01b0316855286955093810193928101926001016101d9565b82546001600160a01b0316845292840192600192830192016101a1565b346100db5760203660031901126100db576004356001600160a01b038116908190036100db5760005260056020526040600020806102a05261026690613853565b6101e0526102a05160010161027a90613853565b610100526102a05160020161028e90613853565b610180526102a0516003016102a290613853565b6103a0526102a0516004016102b690613853565b6101a0526102a0516005016102ca90613853565b6102a0516006016102da90613853565b6102a0516007016102ea90613853565b6102a0516008016102fa90613853565b6102a05160090161030a90613853565b6102a051600a0161031a90613853565b6102a051600b0161032a90613853565b916102a051600c0161033b90613853565b936102a051600d0161034c90613853565b956102a051600e0161035d90613853565b976102a051600f0161036e90613853565b996102a05160100161037f90613853565b60e0526102a05160110161039290613853565b610240526102a0516012016103a690613853565b610380526102a0516013016103ba90613853565b610120526102a0516014016103ce90613853565b6080526102a0516015016103e190613853565b610320526102a0516016016103f590613853565b610400526102a05160170161040990613853565b610200526102a05160180161041d90613853565b6103e0526102a05160190161043190613853565b6101c0526102a051601a0161044590613853565b60a0526102a051601b0161045890613853565b610260526102a051601c0161046c90613853565b6103c0526102a051601d0161048090613853565b610440526102a051601e0161049490613853565b610360526102a051601f016104a890613853565b610300526102a0516020016104bc90613853565b610160526102a0516021016104d090613853565b610220526102a0516022016104e490613853565b6102e0526102a0516023016104f890613853565b610140526102a05160240161050c90613853565b610420526102a05160250161052090613853565b60c0526102a05160260161053390613853565b6102c0526102a05160270161054790613853565b61034052604051806102805261050080915261028051016101e0519061056c91613777565b610280518082039060200152610100519061058691613777565b61028051808203906040015261018051906105a091613777565b6102805180820390606001526103a051906105ba91613777565b6102805180820390608001526101a051906105d491613777565b610280518082039060a001526105e991613777565b610280518082039060c001526105fe91613777565b610280518082039060e0015261061391613777565b6102805180820390610100015261062991613777565b6102805180820390610120015261063f91613777565b6102805180820390610140015261065591613777565b6102805180820390610160015261066b91613777565b6102805180820390610180015261068191613777565b61028051808203906101a0015261069791613777565b61028051808203906101c001526106ad91613777565b61028051808203906101e001526106c391613777565b6102805180820390610200015260e051906106dd91613777565b6102805180820390610220015261024051906106f891613777565b61028051808203906102400152610380519061071391613777565b61028051808203906102600152610120519061072e91613777565b610280518082039061028001526080519061074891613777565b61028051808203906102a00152610320519061076391613777565b61028051808203906102c00152610400519061077e91613777565b61028051808203906102e00152610200519061079991613777565b610280518082039061030001526103e051906107b491613777565b610280518082039061032001526101c051906107cf91613777565b6102805180820390610340015260a051906107e991613777565b61028051808203906103600152610260519061080491613777565b610280518082039061038001526103c0519061081f91613777565b61028051808203906103a00152610440519061083a91613777565b61028051808203906103c00152610360519061085591613777565b61028051808203906103e00152610300519061087091613777565b61028051808203906104000152610160519061088b91613777565b6102805180820390610420015261022051906108a691613777565b610280518082039061044001526102e051906108c191613777565b6102805180820390610460015261014051906108dc91613777565b6102805180820390610480015261042051906108f791613777565b61028051808203906104a0015260c0519061091191613777565b61028051808203906104c001526102c0519061092c91613777565b61028051808203906104e001526102805190610340519061094c91613777565b0361028051f35b346100db576020806003193601126100db57600435906001600160a01b0382168083036100db577f47be077097410b560f37e1246fc66026ea96c97005a0aee44ad2b86ea262d8e392336000526005835260276040600020016109bf6109b98254613819565b82613910565b600e6611dc985b9d195960ca1b018091553360005260008452604060002083600052845260406000206109f56109b98254613819565b5533600052600183526040600020826000528352610a2460406000209160ff1992600184825416179055613b93565b600454610a4857336000526002835260406000209081541690555b604051908152a1005b33600052600283526001604060002091825416179055610a3f565b346100db5760003660031901126100db5761013e610a8033613f33565b604051918291826137b7565b346100db576020806003193601126100db57600435906001600160a01b0382168083036100db577fb572534a60770fffddac514e6f51f76960333bf219fdec57566aa50912fdf49c92336000526000835260406000208260005283526040600020610afa6109b98254613819565b600e6611dc985b9d195960ca1b01905533600052600583526027604060002001610b276109b98254613819565b600c6511195b9a595960d21b01905533600052600183526040600020826000528352610b6160406000209160ff1992838154169055613b93565b600454610bae57336000526002835260406000209081541690555b7f47be077097410b560f37e1246fc66026ea96c97005a0aee44ad2b86ea262d8e382604051838152a1604051908152a1005b33600052600283526001604060002091825416179055610b7c565b346100db5760203660031901126100db576004356001600160a01b03811681036100db57610a8061013e91613f33565b346100db5760203660031901126100db576004356004548110156100db5760046000527f8a35acfbc15ff81a39ae7d344fd709f28e8600b4aa8c65c6b64bfe7fe36bd19b01546040516001600160a01b039091168152602090f35b346100db5760203660031901126100db576004356001600160a01b038116908190036100db576000526002602052602060ff604060002054166040519015158152f35b346100db5760203660031901126100db576004356003548110156100db5760036000527fc2575a0e9e593c00f959f8c92f12db2869c3395a3b0502d05e2516446f71f85b01546040516001600160a01b039091168152602090f35b346100db576003196020368201126100db576001600160401b03600435116100db576105008091600435360301126100db576040519081018181106001600160401b038211176124da57604052600435600401356001600160401b0381116100db57610d659060043691813501016136d4565b8152602460043501356001600160401b0381116100db57610d8d9060043691813501016136d4565b6020820152604460043501356001600160401b0381116100db57610db89060043691813501016136d4565b6040820152606460043501356001600160401b0381116100db57610de39060043691813501016136d4565b6060820152608460043501356001600160401b0381116100db57610e0e9060043691813501016136d4565b608082015260a460043501356001600160401b0381116100db57610e399060043691813501016136d4565b60a082015260c460043501356001600160401b0381116100db57610e649060043691813501016136d4565b60c082015260e460043501356001600160401b0381116100db57610e8f9060043691813501016136d4565b60e082015261010460043501356001600160401b0381116100db57610ebb9060043691813501016136d4565b6101008201526001600160401b036101246004350135116100db57610eeb366004803561012481013501016136d4565b6101208201526001600160401b036101446004350135116100db57610f1b366004803561014481013501016136d4565b6101408201526001600160401b036101646004350135116100db57610f4b366004803561016481013501016136d4565b6101608201526001600160401b036101846004350135116100db57610f7b366004803561018481013501016136d4565b6101808201526001600160401b036101a46004350135116100db57610fab36600480356101a481013501016136d4565b6101a08201526001600160401b036101c46004350135116100db57610fdb36600480356101c481013501016136d4565b6101c08201526001600160401b036101e46004350135116100db5761100b36600480356101e481013501016136d4565b6101e08201526001600160401b036102046004350135116100db5761103b366004803561020481013501016136d4565b6102008201526001600160401b036102246004350135116100db5761106b366004803561022481013501016136d4565b6102208201526001600160401b036102446004350135116100db5761109b366004803561024481013501016136d4565b6102408201526001600160401b036102646004350135116100db576110cb366004803561026481013501016136d4565b6102608201526001600160401b036102846004350135116100db576110fb366004803561028481013501016136d4565b6102808201526001600160401b036102a46004350135116100db5761112b36600480356102a481013501016136d4565b6102a08201526001600160401b036102c46004350135116100db5761115b36600480356102c481013501016136d4565b6102c08201526001600160401b036102e46004350135116100db5761118b36600480356102e481013501016136d4565b6102e08201526001600160401b036103046004350135116100db576111bb366004803561030481013501016136d4565b6103008201526001600160401b036103246004350135116100db576111eb366004803561032481013501016136d4565b6103208201526001600160401b036103446004350135116100db5761121b366004803561034481013501016136d4565b6103408201526001600160401b036103646004350135116100db5761124b366004803561036481013501016136d4565b6103608201526001600160401b036103846004350135116100db5761127b366004803561038481013501016136d4565b6103808201526001600160401b036103a46004350135116100db576112ab36600480356103a481013501016136d4565b6103a08201526001600160401b036103c46004350135116100db576112db36600480356103c481013501016136d4565b6103c08201526001600160401b036103e46004350135116100db5761130b36600480356103e481013501016136d4565b6103e08201526001600160401b036104046004350135116100db5761133b366004803561040481013501016136d4565b6104008201526001600160401b036104246004350135116100db5761136b366004803561042481013501016136d4565b6104208201526001600160401b036104446004350135116100db5761139b366004803561044481013501016136d4565b6104408201526001600160401b036104646004350135116100db576113cb366004803561046481013501016136d4565b6104608201526001600160401b036104846004350135116100db576113fb366004803561048481013501016136d4565b6104808201526001600160401b036104a46004350135116100db5761142b36600480356104a481013501016136d4565b6104a08201526001600160401b036104c46004350135116100db5761145b36600480356104c481013501016136d4565b6104c08201526001600160401b036104e46004350135116100db5761148b36600480356104e481013501016136d4565b6104e0820152805190336000526005602052604060002082516001600160401b0381116124da576114c6816114c08454613819565b84613938565b6020601f82116001146136125781929394600092613607575b50508160011b916000199060031b1c19161790555b602081015190336000526005602052600160406000200182516001600160401b0381116124da57611529816114c08454613819565b6020601f821160011461359f5781929394600092613594575b50508160011b916000199060031b1c19161790555b604081015190336000526005602052600260406000200182516001600160401b0381116124da5761158c816114c08454613819565b6020601f821160011461352c5781929394600092613521575b50508160011b916000199060031b1c19161790555b606081015190336000526005602052600360406000200182516001600160401b0381116124da576115ef816114c08454613819565b6020601f82116001146134b957819293946000926134ae575b50508160011b916000199060031b1c19161790555b608081015190336000526005602052600460406000200182516001600160401b0381116124da57611652816114c08454613819565b6020601f8211600114613446578192939460009261343b575b50508160011b916000199060031b1c19161790555b60a081015190336000526005602052600560406000200182516001600160401b0381116124da576116b5816114c08454613819565b6020601f82116001146133d357819293946000926133c8575b50508160011b916000199060031b1c19161790555b60c081015190336000526005602052600660406000200182516001600160401b0381116124da57611718816114c08454613819565b6020601f82116001146133605781929394600092613355575b50508160011b916000199060031b1c19161790555b60e081015190336000526005602052600760406000200182516001600160401b0381116124da5761177b816114c08454613819565b6020601f82116001146132ed57819293946000926132e2575b50508160011b916000199060031b1c19161790555b61010081015190336000526005602052600860406000200182516001600160401b0381116124da576117df816114c08454613819565b6020601f821160011461327a578192939460009261326f575b50508160011b916000199060031b1c19161790555b61012081015190336000526005602052600960406000200182516001600160401b0381116124da57611843816114c08454613819565b6020601f821160011461320757819293946000926131fc575b50508160011b916000199060031b1c19161790555b61014081015190336000526005602052600a60406000200182516001600160401b0381116124da576118a7816114c08454613819565b6020601f82116001146131945781929394600092613189575b50508160011b916000199060031b1c19161790555b61016081015190336000526005602052600b60406000200182516001600160401b0381116124da5761190b816114c08454613819565b6020601f82116001146131215781929394600092613116575b50508160011b916000199060031b1c19161790555b61018081015190336000526005602052600c60406000200182516001600160401b0381116124da5761196f816114c08454613819565b6020601f82116001146130ae57819293946000926130a3575b50508160011b916000199060031b1c19161790555b6101a081015190336000526005602052600d60406000200182516001600160401b0381116124da576119d3816114c08454613819565b6020601f821160011461303b5781929394600092613030575b50508160011b916000199060031b1c19161790555b6101c081015190336000526005602052600e60406000200182516001600160401b0381116124da57611a37816114c08454613819565b6020601f8211600114612fc85781929394600092612fbd575b50508160011b916000199060031b1c19161790555b6101e081015190336000526005602052600f60406000200182516001600160401b0381116124da57611a9b816114c08454613819565b6020601f8211600114612f555781929394600092612f4a575b50508160011b916000199060031b1c19161790555b61020081015190336000526005602052601060406000200182516001600160401b0381116124da57611aff816114c08454613819565b6020601f8211600114612ee25781929394600092612ed7575b50508160011b916000199060031b1c19161790555b61022081015190336000526005602052601160406000200182516001600160401b0381116124da57611b63816114c08454613819565b6020601f8211600114612e6f5781929394600092612e64575b50508160011b916000199060031b1c19161790555b61024081015190336000526005602052601260406000200182516001600160401b0381116124da57611bc7816114c08454613819565b6020601f8211600114612dfc5781929394600092612df1575b50508160011b916000199060031b1c19161790555b61026081015190336000526005602052601360406000200182516001600160401b0381116124da57611c2b816114c08454613819565b6020601f8211600114612d895781929394600092612d7e575b50508160011b916000199060031b1c19161790555b61028081015190336000526005602052601460406000200182516001600160401b0381116124da57611c8f816114c08454613819565b6020601f8211600114612d165781929394600092612d0b575b50508160011b916000199060031b1c19161790555b6102a081015190336000526005602052601560406000200182516001600160401b0381116124da57611cf3816114c08454613819565b6020601f8211600114612ca35781929394600092612c98575b50508160011b916000199060031b1c19161790555b6102c081015190336000526005602052601660406000200182516001600160401b0381116124da57611d57816114c08454613819565b6020601f8211600114612c305781929394600092612c25575b50508160011b916000199060031b1c19161790555b6102e081015190336000526005602052601760406000200182516001600160401b0381116124da57611dbb816114c08454613819565b6020601f8211600114612bbd5781929394600092612bb2575b50508160011b916000199060031b1c19161790555b61030081015190336000526005602052601860406000200182516001600160401b0381116124da57611e1f816114c08454613819565b6020601f8211600114612b4a5781929394600092612b3f575b50508160011b916000199060031b1c19161790555b61034081015190336000526005602052601a60406000200182516001600160401b0381116124da57611e83816114c08454613819565b6020601f8211600114612ad75781929394600092612acc575b50508160011b916000199060031b1c19161790555b61032081015190336000526005602052601960406000200182516001600160401b0381116124da57611ee7816114c08454613819565b6020601f8211600114612a645781929394600092612a59575b50508160011b916000199060031b1c19161790555b61036081015190336000526005602052601b60406000200182516001600160401b0381116124da57611f4b816114c08454613819565b6020601f82116001146129f157819293946000926129e6575b50508160011b916000199060031b1c19161790555b6103a081015190336000526005602052601d60406000200182516001600160401b0381116124da57611faf816114c08454613819565b6020601f821160011461297e5781929394600092612973575b50508160011b916000199060031b1c19161790555b61038081015190336000526005602052601c60406000200182516001600160401b0381116124da57612013816114c08454613819565b6020601f821160011461290b5781929394600092612900575b50508160011b916000199060031b1c19161790555b6103c081015190336000526005602052601e60406000200182516001600160401b0381116124da57612077816114c08454613819565b6020601f8211600114612898578192939460009261288d575b50508160011b916000199060031b1c19161790555b61040081015190336000526005602052602060406000200182516001600160401b0381116124da576120db816114c08454613819565b6020601f8211600114612825578192939460009261281a575b50508160011b916000199060031b1c19161790555b6103e081015190336000526005602052601f60406000200182516001600160401b0381116124da5761213f816114c08454613819565b6020601f82116001146127b257819293946000926127a7575b50508160011b916000199060031b1c19161790555b61042081015190336000526005602052602160406000200182516001600160401b0381116124da576121a3816114c08454613819565b6020601f821160011461273f5781929394600092612734575b50508160011b916000199060031b1c19161790555b61046081015190336000526005602052602360406000200182516001600160401b0381116124da57612207816114c08454613819565b6020601f82116001146126cc57819293946000926126c1575b50508160011b916000199060031b1c19161790555b61044081015190336000526005602052602260406000200182516001600160401b0381116124da5761226b816114c08454613819565b6020601f8211600114612659578192939460009261264e575b50508160011b916000199060031b1c19161790555b61048081015190336000526005602052602460406000200182516001600160401b0381116124da576122cf816114c08454613819565b6020601f82116001146125e657819293946000926125db575b50508160011b916000199060031b1c19161790555b6104c081015190336000526005602052602660406000200182516001600160401b0381116124da57612333816114c08454613819565b6020601f82116001146125735781929394600092612568575b50508160011b916000199060031b1c19161790555b6104a08101519033600052600560205260256040600020018251926001600160401b0384116124da57612398846114c08454613819565b602090601f85116001146124fb576104e09491600091836124f0575b50508160011b916000199060031b1c19161790555b0151336000526005602052602760406000200181516001600160401b0381116124da576123fa816114c08454613819565b602092601f8211600114612476579281929360009261246b575b50508160011b916000199060031b1c19161790555b336000526002602052604060002060ff1981541690557fd05e9f060c4d63fdf1ea5b7d706724b60537e22d729335c17da320380a72c7266020604051338152a1005b015190508380612414565b601f198216938360005260206000209160005b8681106124c257508360019596106124a9575b505050811b019055612429565b015160001960f88460031b161c1916905583808061249c565b91926020600181928685015181550194019201612489565b634e487b7160e01b600052604160045260246000fd5b0151905085806123b4565b908260005260206000209160005b601f198716811061255057509185916001936104e097601f19811610612537575b505050811b0190556123c9565b015160001960f88460031b161c1916905585808061252a565b91926020600181928685015181550194019201612509565b01519050848061234c565b8260005260206000209060005b601f19841681106125c35750600193949583601f198116106125aa575b505050811b019055612361565b015160001960f88460031b161c1916905584808061259d565b9091602060018192858a015181550193019101612580565b0151905084806122e8565b8260005260206000209060005b601f19841681106126365750600193949583601f1981161061261d575b505050811b0190556122fd565b015160001960f88460031b161c19169055848080612610565b9091602060018192858a0151815501930191016125f3565b015190508480612284565b8260005260206000209060005b601f19841681106126a95750600193949583601f19811610612690575b505050811b019055612299565b015160001960f88460031b161c19169055848080612683565b9091602060018192858a015181550193019101612666565b015190508480612220565b8260005260206000209060005b601f198416811061271c5750600193949583601f19811610612703575b505050811b019055612235565b015160001960f88460031b161c191690558480806126f6565b9091602060018192858a0151815501930191016126d9565b0151905084806121bc565b8260005260206000209060005b601f198416811061278f5750600193949583601f19811610612776575b505050811b0190556121d1565b015160001960f88460031b161c19169055848080612769565b9091602060018192858a01518155019301910161274c565b015190508480612158565b8260005260206000209060005b601f19841681106128025750600193949583601f198116106127e9575b505050811b01905561216d565b015160001960f88460031b161c191690558480806127dc565b9091602060018192858a0151815501930191016127bf565b0151905084806120f4565b8260005260206000209060005b601f19841681106128755750600193949583601f1981161061285c575b505050811b019055612109565b015160001960f88460031b161c1916905584808061284f565b9091602060018192858a015181550193019101612832565b015190508480612090565b8260005260206000209060005b601f19841681106128e85750600193949583601f198116106128cf575b505050811b0190556120a5565b015160001960f88460031b161c191690558480806128c2565b9091602060018192858a0151815501930191016128a5565b01519050848061202c565b8260005260206000209060005b601f198416811061295b5750600193949583601f19811610612942575b505050811b019055612041565b015160001960f88460031b161c19169055848080612935565b9091602060018192858a015181550193019101612918565b015190508480611fc8565b8260005260206000209060005b601f19841681106129ce5750600193949583601f198116106129b5575b505050811b019055611fdd565b015160001960f88460031b161c191690558480806129a8565b9091602060018192858a01518155019301910161298b565b015190508480611f64565b8260005260206000209060005b601f1984168110612a415750600193949583601f19811610612a28575b505050811b019055611f79565b015160001960f88460031b161c19169055848080612a1b565b9091602060018192858a0151815501930191016129fe565b015190508480611f00565b8260005260206000209060005b601f1984168110612ab45750600193949583601f19811610612a9b575b505050811b019055611f15565b015160001960f88460031b161c19169055848080612a8e565b9091602060018192858a015181550193019101612a71565b015190508480611e9c565b8260005260206000209060005b601f1984168110612b275750600193949583601f19811610612b0e575b505050811b019055611eb1565b015160001960f88460031b161c19169055848080612b01565b9091602060018192858a015181550193019101612ae4565b015190508480611e38565b8260005260206000209060005b601f1984168110612b9a5750600193949583601f19811610612b81575b505050811b019055611e4d565b015160001960f88460031b161c19169055848080612b74565b9091602060018192858a015181550193019101612b57565b015190508480611dd4565b8260005260206000209060005b601f1984168110612c0d5750600193949583601f19811610612bf4575b505050811b019055611de9565b015160001960f88460031b161c19169055848080612be7565b9091602060018192858a015181550193019101612bca565b015190508480611d70565b8260005260206000209060005b601f1984168110612c805750600193949583601f19811610612c67575b505050811b019055611d85565b015160001960f88460031b161c19169055848080612c5a565b9091602060018192858a015181550193019101612c3d565b015190508480611d0c565b8260005260206000209060005b601f1984168110612cf35750600193949583601f19811610612cda575b505050811b019055611d21565b015160001960f88460031b161c19169055848080612ccd565b9091602060018192858a015181550193019101612cb0565b015190508480611ca8565b8260005260206000209060005b601f1984168110612d665750600193949583601f19811610612d4d575b505050811b019055611cbd565b015160001960f88460031b161c19169055848080612d40565b9091602060018192858a015181550193019101612d23565b015190508480611c44565b8260005260206000209060005b601f1984168110612dd95750600193949583601f19811610612dc0575b505050811b019055611c59565b015160001960f88460031b161c19169055848080612db3565b9091602060018192858a015181550193019101612d96565b015190508480611be0565b8260005260206000209060005b601f1984168110612e4c5750600193949583601f19811610612e33575b505050811b019055611bf5565b015160001960f88460031b161c19169055848080612e26565b9091602060018192858a015181550193019101612e09565b015190508480611b7c565b8260005260206000209060005b601f1984168110612ebf5750600193949583601f19811610612ea6575b505050811b019055611b91565b015160001960f88460031b161c19169055848080612e99565b9091602060018192858a015181550193019101612e7c565b015190508480611b18565b8260005260206000209060005b601f1984168110612f325750600193949583601f19811610612f19575b505050811b019055611b2d565b015160001960f88460031b161c19169055848080612f0c565b9091602060018192858a015181550193019101612eef565b015190508480611ab4565b8260005260206000209060005b601f1984168110612fa55750600193949583601f19811610612f8c575b505050811b019055611ac9565b015160001960f88460031b161c19169055848080612f7f565b9091602060018192858a015181550193019101612f62565b015190508480611a50565b8260005260206000209060005b601f19841681106130185750600193949583601f19811610612fff575b505050811b019055611a65565b015160001960f88460031b161c19169055848080612ff2565b9091602060018192858a015181550193019101612fd5565b0151905084806119ec565b8260005260206000209060005b601f198416811061308b5750600193949583601f19811610613072575b505050811b019055611a01565b015160001960f88460031b161c19169055848080613065565b9091602060018192858a015181550193019101613048565b015190508480611988565b8260005260206000209060005b601f19841681106130fe5750600193949583601f198116106130e5575b505050811b01905561199d565b015160001960f88460031b161c191690558480806130d8565b9091602060018192858a0151815501930191016130bb565b015190508480611924565b8260005260206000209060005b601f19841681106131715750600193949583601f19811610613158575b505050811b019055611939565b015160001960f88460031b161c1916905584808061314b565b9091602060018192858a01518155019301910161312e565b0151905084806118c0565b8260005260206000209060005b601f19841681106131e45750600193949583601f198116106131cb575b505050811b0190556118d5565b015160001960f88460031b161c191690558480806131be565b9091602060018192858a0151815501930191016131a1565b01519050848061185c565b8260005260206000209060005b601f19841681106132575750600193949583601f1981161061323e575b505050811b019055611871565b015160001960f88460031b161c19169055848080613231565b9091602060018192858a015181550193019101613214565b0151905084806117f8565b8260005260206000209060005b601f19841681106132ca5750600193949583601f198116106132b1575b505050811b01905561180d565b015160001960f88460031b161c191690558480806132a4565b9091602060018192858a015181550193019101613287565b015190508480611794565b8260005260206000209060005b601f198416811061333d5750600193949583601f19811610613324575b505050811b0190556117a9565b015160001960f88460031b161c19169055848080613317565b9091602060018192858a0151815501930191016132fa565b015190508480611731565b8260005260206000209060005b601f19841681106133b05750600193949583601f19811610613397575b505050811b019055611746565b015160001960f88460031b161c1916905584808061338a565b9091602060018192858a01518155019301910161336d565b0151905084806116ce565b8260005260206000209060005b601f19841681106134235750600193949583601f1981161061340a575b505050811b0190556116e3565b015160001960f88460031b161c191690558480806133fd565b9091602060018192858a0151815501930191016133e0565b01519050848061166b565b8260005260206000209060005b601f19841681106134965750600193949583601f1981161061347d575b505050811b019055611680565b015160001960f88460031b161c19169055848080613470565b9091602060018192858a015181550193019101613453565b015190508480611608565b8260005260206000209060005b601f19841681106135095750600193949583601f198116106134f0575b505050811b01905561161d565b015160001960f88460031b161c191690558480806134e3565b9091602060018192858a0151815501930191016134c6565b0151905084806115a5565b8260005260206000209060005b601f198416811061357c5750600193949583601f19811610613563575b505050811b0190556115ba565b015160001960f88460031b161c19169055848080613556565b9091602060018192858a015181550193019101613539565b015190508480611542565b8260005260206000209060005b601f19841681106135ef5750600193949583601f198116106135d6575b505050811b019055611557565b015160001960f88460031b161c191690558480806135c9565b9091602060018192858a0151815501930191016135ac565b0151905084806114df565b8260005260206000209060005b601f19841681106136625750600193949583601f19811610613649575b505050811b0190556114f4565b015160001960f88460031b161c1916905584808061363c565b9091602060018192858a01518155019301910161361f565b346100db5760203660031901126100db576004356001600160a01b03811681036100db576136a96020916139a2565b6040519015158152f35b90601f801991011681019081106001600160401b038211176124da57604052565b81601f820112156100db578035906001600160401b0382116124da5760405192613708601f8401601f1916602001856136b3565b828452602083830101116100db57816000926020809301838601378301015290565b6004548110156137615760046000527f8a35acfbc15ff81a39ae7d344fd709f28e8600b4aa8c65c6b64bfe7fe36bd19b0190600090565b634e487b7160e01b600052603260045260246000fd5b919082519283825260005b8481106137a3575050826000602080949584010152601f8019910116010190565b602081830181015184830182015201613782565b602080820190808352835180925260408301928160408460051b8301019501936000915b8483106137eb5750505050505090565b9091929394958480613809600193603f198682030187528a51613777565b98019301930191949392906137db565b90600182811c92168015613849575b602083101461383357565b634e487b7160e01b600052602260045260246000fd5b91607f1691613828565b906040519182600082549261386784613819565b9081845260019485811690816000146138d65750600114613893575b5050613891925003836136b3565b565b9093915060005260209081600020936000915b8183106138be57505061389193508201013880613883565b855488840185015294850194879450918301916138a6565b91505061389194506020925060ff191682840152151560051b8201013880613883565b818110613904575050565b600081556001016138f9565b90601f811161391d575050565b61389191600052601f6020600020910160051c8101906138f9565b9190601f811161394757505050565b613891926000526020600020906020601f840160051c83019310613973575b601f0160051c01906138f9565b9091508190613966565b600019811461398c5760010190565b634e487b7160e01b600052601160045260246000fd5b6000905b60038054831015613a71576000527fc2575a0e9e593c00f959f8c92f12db2869c3395a3b0502d05e2516446f71f85b8201546001600160a01b0392908316331480613a47575b613a01576139fb91925061397d565b906139a6565b50166000526020600281527fc0f3a67aa9ba061ea31645e29ee6400403de6e06f65b191b6b891dffc8c4882d60408060002060ff1981541690555191600192838152a190565b50828216600052600160ff60208281526040908160002090336000525260002054161515146139ec565b506001600160a01b03166000818152600260205260409020805460ff191660011790556003549091506801000000000000000090818110156124da5760018101806003558110156137615760036000527fc2575a0e9e593c00f959f8c92f12db2869c3395a3b0502d05e2516446f71f85b0180546001600160a01b03191633179055600454908110156124da577fb58f6102f789cf25950e63d8eecc8d0806c1b52fc17eed084004ad4cd39f7beb91613b57613b358360016040950160045561372a565b81546001600160a01b0360039290921b91821b80199091163390921b16179055565b8151908152336020820152a17fc0f3a67aa9ba061ea31645e29ee6400403de6e06f65b191b6b891dffc8c4882d602060405160008152a1600090565b9060005b60048054821015613ca057613bab8261372a565b90546001600160a01b0392600392909190831b1c831686841614613bda57505050613bd59061397d565b613b97565b919450915b81546000198101908111613c4e57811015613c635760018101808211613c4e5790613c4486613c10613c499461372a565b905490871b1c16613c208361372a565b90919082549060031b9160018060a01b039283811b93849216901b16911916179055565b61397d565b613bdf565b601183634e487b7160e01b6000525260246000fd5b5090919281548015613c8b576000190192613c7d8461372a565b81939154921b1b1916905555565b603183634e487b7160e01b6000525260246000fd5b50509050565b8051156137615760200190565b8051600110156137615760400190565b8051600210156137615760600190565b8051600310156137615760800190565b8051600410156137615760a00190565b8051600510156137615760c00190565b8051600610156137615760e00190565b805160071015613761576101000190565b805160081015613761576101200190565b805160091015613761576101400190565b8051600a1015613761576101600190565b8051600b1015613761576101800190565b8051600c1015613761576101a00190565b8051600d1015613761576101c00190565b8051600e1015613761576101e00190565b8051600f1015613761576102000190565b805160101015613761576102200190565b805160111015613761576102400190565b805160121015613761576102600190565b805160131015613761576102800190565b805160141015613761576102a00190565b805160151015613761576102c00190565b805160161015613761576102e00190565b805160171015613761576103000190565b805160181015613761576103200190565b805160191015613761576103400190565b8051601a1015613761576103600190565b8051601b1015613761576103800190565b8051601c1015613761576103a00190565b8051601d1015613761576103c00190565b8051601e1015613761576103e00190565b8051601f1015613761576104000190565b805160201015613761576104200190565b805160211015613761576104400190565b805160221015613761576104600190565b805160231015613761576104800190565b805160241015613761576104a00190565b805160251015613761576104c00190565b805160261015613761576104e00190565b604080519161050083018381106001600160401b038211176124da5782526027835260005b6104e081106145da575060266145ba9160018060a01b0316928360005260056020818152613f8883600020613853565b613f9188613ca6565b52613f9b87613ca6565b5085600052818152613fb260018460002001613853565b613fbb88613cb3565b52613fc587613cb3565b5085600052818152613fdc60028460002001613853565b613fe588613cc3565b52613fef87613cc3565b508560005281815261400660038460002001613853565b61400f88613cd3565b5261401987613cd3565b508560005281815261403060048460002001613853565b61403988613ce3565b5261404387613ce3565b5085600052818152614059828460002001613853565b61406288613cf3565b5261406c87613cf3565b508560005281815261408360068460002001613853565b61408c88613d03565b5261409687613d03565b50856000528181526140ad60078460002001613853565b6140b688613d13565b526140c087613d13565b50856000528181526140d760088460002001613853565b6140e088613d24565b526140ea87613d24565b508560005281815261410160098460002001613853565b61410a88613d35565b5261411487613d35565b508560005281815261412b600a8460002001613853565b61413488613d46565b5261413e87613d46565b5085600052818152614155600b8460002001613853565b61415e88613d57565b5261416887613d57565b508560005281815261417f600c8460002001613853565b61418888613d68565b5261419287613d68565b50856000528181526141a9600d8460002001613853565b6141b288613d79565b526141bc87613d79565b50856000528181526141d3600e8460002001613853565b6141dc88613d8a565b526141e687613d8a565b50856000528181526141fd600f8460002001613853565b61420688613d9b565b5261421087613d9b565b508560005281815261422760108460002001613853565b61423088613dac565b5261423a87613dac565b508560005281815261425160118460002001613853565b61425a88613dbd565b5261426487613dbd565b508560005281815261427b60128460002001613853565b61428488613dce565b5261428e87613dce565b50856000528181526142a560138460002001613853565b6142ae88613ddf565b526142b887613ddf565b50856000528181526142cf60148460002001613853565b6142d888613df0565b526142e287613df0565b50856000528181526142f960158460002001613853565b61430288613e01565b5261430c87613e01565b508560005281815261432360168460002001613853565b61432c88613e12565b5261433687613e12565b508560005281815261434d60178460002001613853565b61435688613e23565b5261436087613e23565b508560005281815261437760188460002001613853565b61438088613e34565b5261438a87613e34565b50856000528181526143a160198460002001613853565b6143aa88613e45565b526143b487613e45565b50856000528181526143cb601a8460002001613853565b6143d488613e56565b526143de87613e56565b50856000528181526143f5601b8460002001613853565b6143fe88613e67565b5261440887613e67565b508560005281815261441f601c8460002001613853565b61442888613e78565b5261443287613e78565b5085600052818152614449601d8460002001613853565b61445288613e89565b5261445c87613e89565b5085600052818152614473601e8460002001613853565b61447c88613e9a565b5261448687613e9a565b508560005281815261449d601f8460002001613853565b6144a688613eab565b526144b087613eab565b50856000528181526144c6818460002001613853565b6144cf88613ebc565b526144d987613ebc565b50856000528181526144f060218460002001613853565b6144f988613ecd565b5261450387613ecd565b508560005281815261451a60228460002001613853565b61452388613ede565b5261452d87613ede565b508560005281815261454460238460002001613853565b61454d88613eef565b5261455787613eef565b508560005281815261456e60248460002001613853565b61457788613f00565b5261458187613f00565b508560005281815261459860258460002001613853565b6145a188613f11565b526145ab87613f11565b50856000525260002001613853565b6145c383613f22565b526145cd82613f22565b5033146145d75790565b90565b806060602080938701015201613f5856fea264697066735822122085a7b51905d2db5f0f4ad5a6eb8307a9fa8eb99b3fce13aa73474e3377d3580464736f6c63430008110033",
  "linkReferences": {},
  "deployedLinkReferences": {}
}